{
  "_format": "hh-sol-artifact-1",
  "contractName": "NFTtoken",
  "sourceName": "contracts/NFTtoken.sol",
  "abi": [
    {
      "inputs": [],
      "stateMutability": "nonpayable",
      "type": "constructor"
    },
    {
      "anonymous": false,
      "inputs": [
        {
          "indexed": true,
          "internalType": "address",
          "name": "owner",
          "type": "address"
        },
        {
          "indexed": true,
          "internalType": "address",
          "name": "approved",
          "type": "address"
        },
        {
          "indexed": true,
          "internalType": "uint256",
          "name": "tokenId",
          "type": "uint256"
        }
      ],
      "name": "Approval",
      "type": "event"
    },
    {
      "anonymous": false,
      "inputs": [
        {
          "indexed": true,
          "internalType": "address",
          "name": "owner",
          "type": "address"
        },
        {
          "indexed": true,
          "internalType": "address",
          "name": "operator",
          "type": "address"
        },
        {
          "indexed": false,
          "internalType": "bool",
          "name": "approved",
          "type": "bool"
        }
      ],
      "name": "ApprovalForAll",
      "type": "event"
    },
    {
      "anonymous": false,
      "inputs": [
        {
          "indexed": true,
          "internalType": "address",
          "name": "previousOwner",
          "type": "address"
        },
        {
          "indexed": true,
          "internalType": "address",
          "name": "newOwner",
          "type": "address"
        }
      ],
      "name": "OwnershipTransferred",
      "type": "event"
    },
    {
      "anonymous": false,
      "inputs": [
        {
          "indexed": true,
          "internalType": "address",
          "name": "from",
          "type": "address"
        },
        {
          "indexed": true,
          "internalType": "address",
          "name": "to",
          "type": "address"
        },
        {
          "indexed": true,
          "internalType": "uint256",
          "name": "tokenId",
          "type": "uint256"
        }
      ],
      "name": "Transfer",
      "type": "event"
    },
    {
      "inputs": [],
      "name": "_name",
      "outputs": [
        {
          "internalType": "string",
          "name": "",
          "type": "string"
        }
      ],
      "stateMutability": "view",
      "type": "function"
    },
    {
      "inputs": [],
      "name": "_symbol",
      "outputs": [
        {
          "internalType": "string",
          "name": "",
          "type": "string"
        }
      ],
      "stateMutability": "view",
      "type": "function"
    },
    {
      "inputs": [
        {
          "internalType": "address",
          "name": "",
          "type": "address"
        },
        {
          "internalType": "uint256",
          "name": "",
          "type": "uint256"
        }
      ],
      "name": "addrtokenIds",
      "outputs": [
        {
          "internalType": "uint256",
          "name": "",
          "type": "uint256"
        }
      ],
      "stateMutability": "view",
      "type": "function"
    },
    {
      "inputs": [
        {
          "internalType": "address",
          "name": "to",
          "type": "address"
        },
        {
          "internalType": "uint256",
          "name": "tokenId",
          "type": "uint256"
        }
      ],
      "name": "approve",
      "outputs": [],
      "stateMutability": "nonpayable",
      "type": "function"
    },
    {
      "inputs": [
        {
          "internalType": "address",
          "name": "owner",
          "type": "address"
        }
      ],
      "name": "balanceOf",
      "outputs": [
        {
          "internalType": "uint256",
          "name": "",
          "type": "uint256"
        }
      ],
      "stateMutability": "view",
      "type": "function"
    },
    {
      "inputs": [
        {
          "internalType": "uint256",
          "name": "_tokenID",
          "type": "uint256"
        }
      ],
      "name": "creatorOftoken",
      "outputs": [
        {
          "internalType": "string",
          "name": "",
          "type": "string"
        }
      ],
      "stateMutability": "nonpayable",
      "type": "function"
    },
    {
      "inputs": [],
      "name": "decimals",
      "outputs": [
        {
          "internalType": "uint8",
          "name": "",
          "type": "uint8"
        }
      ],
      "stateMutability": "pure",
      "type": "function"
    },
    {
      "inputs": [
        {
          "internalType": "uint256",
          "name": "tokenId",
          "type": "uint256"
        }
      ],
      "name": "getApproved",
      "outputs": [
        {
          "internalType": "address",
          "name": "",
          "type": "address"
        }
      ],
      "stateMutability": "view",
      "type": "function"
    },
    {
      "inputs": [
        {
          "internalType": "address",
          "name": "owner",
          "type": "address"
        },
        {
          "internalType": "address",
          "name": "operator",
          "type": "address"
        }
      ],
      "name": "isApprovedForAll",
      "outputs": [
        {
          "internalType": "bool",
          "name": "",
          "type": "bool"
        }
      ],
      "stateMutability": "view",
      "type": "function"
    },
    {
      "inputs": [],
      "name": "mint",
      "outputs": [],
      "stateMutability": "nonpayable",
      "type": "function"
    },
    {
      "inputs": [],
      "name": "name",
      "outputs": [
        {
          "internalType": "string",
          "name": "",
          "type": "string"
        }
      ],
      "stateMutability": "view",
      "type": "function"
    },
    {
      "inputs": [],
      "name": "owner",
      "outputs": [
        {
          "internalType": "address",
          "name": "",
          "type": "address"
        }
      ],
      "stateMutability": "view",
      "type": "function"
    },
    {
      "inputs": [
        {
          "internalType": "uint256",
          "name": "tokenId",
          "type": "uint256"
        }
      ],
      "name": "ownerOf",
      "outputs": [
        {
          "internalType": "address",
          "name": "",
          "type": "address"
        }
      ],
      "stateMutability": "view",
      "type": "function"
    },
    {
      "inputs": [
        {
          "internalType": "uint256",
          "name": "_tokenId",
          "type": "uint256"
        }
      ],
      "name": "ownerOftoken",
      "outputs": [
        {
          "internalType": "address",
          "name": "owner",
          "type": "address"
        }
      ],
      "stateMutability": "nonpayable",
      "type": "function"
    },
    {
      "inputs": [],
      "name": "renounceOwnership",
      "outputs": [],
      "stateMutability": "nonpayable",
      "type": "function"
    },
    {
      "inputs": [
        {
          "internalType": "address",
          "name": "from",
          "type": "address"
        },
        {
          "internalType": "address",
          "name": "to",
          "type": "address"
        },
        {
          "internalType": "uint256",
          "name": "tokenId",
          "type": "uint256"
        }
      ],
      "name": "safeTransferFrom",
      "outputs": [],
      "stateMutability": "nonpayable",
      "type": "function"
    },
    {
      "inputs": [
        {
          "internalType": "address",
          "name": "from",
          "type": "address"
        },
        {
          "internalType": "address",
          "name": "to",
          "type": "address"
        },
        {
          "internalType": "uint256",
          "name": "tokenId",
          "type": "uint256"
        },
        {
          "internalType": "bytes",
          "name": "_data",
          "type": "bytes"
        }
      ],
      "name": "safeTransferFrom",
      "outputs": [],
      "stateMutability": "nonpayable",
      "type": "function"
    },
    {
      "inputs": [
        {
          "internalType": "address",
          "name": "operator",
          "type": "address"
        },
        {
          "internalType": "bool",
          "name": "approved",
          "type": "bool"
        }
      ],
      "name": "setApprovalForAll",
      "outputs": [],
      "stateMutability": "nonpayable",
      "type": "function"
    },
    {
      "inputs": [
        {
          "internalType": "bytes4",
          "name": "interfaceId",
          "type": "bytes4"
        }
      ],
      "name": "supportsInterface",
      "outputs": [
        {
          "internalType": "bool",
          "name": "",
          "type": "bool"
        }
      ],
      "stateMutability": "view",
      "type": "function"
    },
    {
      "inputs": [],
      "name": "symbol",
      "outputs": [
        {
          "internalType": "string",
          "name": "",
          "type": "string"
        }
      ],
      "stateMutability": "view",
      "type": "function"
    },
    {
      "inputs": [
        {
          "internalType": "uint256",
          "name": "",
          "type": "uint256"
        }
      ],
      "name": "tarots",
      "outputs": [
        {
          "internalType": "uint256",
          "name": "",
          "type": "uint256"
        }
      ],
      "stateMutability": "view",
      "type": "function"
    },
    {
      "inputs": [
        {
          "internalType": "uint256",
          "name": "tokenId",
          "type": "uint256"
        }
      ],
      "name": "tokenURI",
      "outputs": [
        {
          "internalType": "string",
          "name": "",
          "type": "string"
        }
      ],
      "stateMutability": "view",
      "type": "function"
    },
    {
      "inputs": [
        {
          "internalType": "address",
          "name": "_to",
          "type": "address"
        },
        {
          "internalType": "uint256",
          "name": "_tokenId",
          "type": "uint256"
        }
      ],
      "name": "transfer",
      "outputs": [],
      "stateMutability": "nonpayable",
      "type": "function"
    },
    {
      "inputs": [
        {
          "internalType": "address",
          "name": "from",
          "type": "address"
        },
        {
          "internalType": "address",
          "name": "to",
          "type": "address"
        },
        {
          "internalType": "uint256",
          "name": "tokenId",
          "type": "uint256"
        }
      ],
      "name": "transferFrom",
      "outputs": [],
      "stateMutability": "nonpayable",
      "type": "function"
    },
    {
      "inputs": [
        {
          "internalType": "address",
          "name": "newOwner",
          "type": "address"
        }
      ],
      "name": "transferOwnership",
      "outputs": [],
      "stateMutability": "nonpayable",
      "type": "function"
    }
  ],
  "bytecode": "0x60806040526040518060400160405280601381526020017f4865726f6573206f66205065616365204e4654000000000000000000000000008152506007908051906020019062000051929190620005f3565b506040518060400160405280600781526020017f434e4e5f4e465400000000000000000000000000000000000000000000000000815250600890805190602001906200009f929190620005f3565b506040518060600160405280602a815260200162003ea3602a913960099080519060200190620000d1929190620005f3565b50348015620000df57600080fd5b5060078054620000ef90620009b3565b80601f01602080910402602001604051908101604052809291908181526020018280546200011d90620009b3565b80156200016e5780601f1062000142576101008083540402835291602001916200016e565b820191906000526020600020905b8154815290600101906020018083116200015057829003601f168201915b5050505050600880546200018290620009b3565b80601f0160208091040260200160405190810160405280929190818152602001828054620001b090620009b3565b8015620002015780601f10620001d55761010080835404028352916020019162000201565b820191906000526020600020905b815481529060010190602001808311620001e357829003601f168201915b5050505050620002266200021a620002ae60201b60201c565b620002b660201b60201c565b81600190805190602001906200023e929190620005f3565b50806002908051906020019062000257929190620005f3565b505050620002a86200026e620002ae60201b60201c565b6200027e6200037a60201b60201c565b600a6200028c9190620007fe565b629896806200029c91906200093b565b6200038360201b60201c565b62000aa6565b600033905090565b60008060009054906101000a900473ffffffffffffffffffffffffffffffffffffffff169050816000806101000a81548173ffffffffffffffffffffffffffffffffffffffff021916908373ffffffffffffffffffffffffffffffffffffffff1602179055508173ffffffffffffffffffffffffffffffffffffffff168173ffffffffffffffffffffffffffffffffffffffff167f8be0079c531659141344cd1fd0a4f28419497f9722a3daafe3b4186f6b6457e060405160405180910390a35050565b60006012905090565b600073ffffffffffffffffffffffffffffffffffffffff168273ffffffffffffffffffffffffffffffffffffffff161415620003f6576040517f08c379a0000000000000000000000000000000000000000000000000000000008152600401620003ed9062000713565b60405180910390fd5b62000407816200057d60201b60201c565b156200044a576040517f08c379a00000000000000000000000000000000000000000000000000000000081526004016200044190620006f1565b60405180910390fd5b6200045e60008383620005e960201b60201c565b6001600460008473ffffffffffffffffffffffffffffffffffffffff1673ffffffffffffffffffffffffffffffffffffffff1681526020019081526020016000206000828254620004b0919062000746565b92505081905550816003600083815260200190815260200160002060006101000a81548173ffffffffffffffffffffffffffffffffffffffff021916908373ffffffffffffffffffffffffffffffffffffffff160217905550808273ffffffffffffffffffffffffffffffffffffffff16600073ffffffffffffffffffffffffffffffffffffffff167fddf252ad1be2c89b69c2b068fc378daa952ba7f163c4a11628f55a4df523b3ef60405160405180910390a46200057960008383620005ee60201b60201c565b5050565b60008073ffffffffffffffffffffffffffffffffffffffff166003600084815260200190815260200160002060009054906101000a900473ffffffffffffffffffffffffffffffffffffffff1673ffffffffffffffffffffffffffffffffffffffff1614159050919050565b505050565b505050565b8280546200060190620009b3565b90600052602060002090601f01602090048101928262000625576000855562000671565b82601f106200064057805160ff191683800117855562000671565b8280016001018555821562000671579182015b828111156200067057825182559160200191906001019062000653565b5b50905062000680919062000684565b5090565b5b808211156200069f57600081600090555060010162000685565b5090565b6000620006b2601c8362000735565b9150620006bf8262000a54565b602082019050919050565b6000620006d960208362000735565b9150620006e68262000a7d565b602082019050919050565b600060208201905081810360008301526200070c81620006a3565b9050919050565b600060208201905081810360008301526200072e81620006ca565b9050919050565b600082825260208201905092915050565b600062000753826200099c565b915062000760836200099c565b9250827fffffffffffffffffffffffffffffffffffffffffffffffffffffffffffffffff03821115620007985762000797620009e9565b5b828201905092915050565b6000808291508390505b6001851115620007f557808604811115620007cd57620007cc620009e9565b5b6001851615620007dd5780820291505b8081029050620007ed8562000a47565b9450620007ad565b94509492505050565b60006200080b826200099c565b91506200081883620009a6565b9250620008477fffffffffffffffffffffffffffffffffffffffffffffffffffffffffffffffff84846200084f565b905092915050565b60008262000861576001905062000934565b8162000871576000905062000934565b81600181146200088a57600281146200089557620008cb565b600191505062000934565b60ff841115620008aa57620008a9620009e9565b5b8360020a915084821115620008c457620008c3620009e9565b5b5062000934565b5060208310610133831016604e8410600b8410161715620009055782820a905083811115620008ff57620008fe620009e9565b5b62000934565b620009148484846001620007a3565b925090508184048111156200092e576200092d620009e9565b5b81810290505b9392505050565b600062000948826200099c565b915062000955836200099c565b9250817fffffffffffffffffffffffffffffffffffffffffffffffffffffffffffffffff0483118215151615620009915762000990620009e9565b5b828202905092915050565b6000819050919050565b600060ff82169050919050565b60006002820490506001821680620009cc57607f821691505b60208210811415620009e357620009e262000a18565b5b50919050565b7f4e487b7100000000000000000000000000000000000000000000000000000000600052601160045260246000fd5b7f4e487b7100000000000000000000000000000000000000000000000000000000600052602260045260246000fd5b60008160011c9050919050565b7f4552433732313a20746f6b656e20616c7265616479206d696e74656400000000600082015250565b7f4552433732313a206d696e7420746f20746865207a65726f2061646472657373600082015250565b6133ed8062000ab66000396000f3fe608060405234801561001057600080fd5b50600436106101735760003560e01c80638da5cb5b116100de578063b88d4fde11610097578063d28d885211610071578063d28d88521461044a578063e3b1997914610468578063e985e9c514610498578063f2fde38b146104c857610173565b8063b88d4fde146103ce578063c82b1b4c146103ea578063c87b56dd1461041a57610173565b80638da5cb5b1461030c57806395d89b411461032a578063a22cb46514610348578063a68d7b2c14610364578063a9059cbb14610394578063b09f1266146103b057610173565b8063313ce56711610130578063313ce5671461023857806342842e0e146102565780636352211e1461027257806370a08231146102a2578063715018a6146102d257806386c58dbd146102dc57610173565b806301ffc9a71461017857806306fdde03146101a8578063081812fc146101c6578063095ea7b3146101f65780631249c58b1461021257806323b872dd1461021c575b600080fd5b610192600480360381019061018d91906123e2565b6104e4565b60405161019f919061283d565b60405180910390f35b6101b06105c6565b6040516101bd9190612858565b60405180910390f35b6101e060048036038101906101db9190612434565b610658565b6040516101ed91906127d6565b60405180910390f35b610210600480360381019061020b91906123a6565b6106dd565b005b61021a6107f5565b005b610236600480360381019061023191906122a0565b61095f565b005b6102406109bf565b60405161024d9190612ad5565b60405180910390f35b610270600480360381019061026b91906122a0565b6109c8565b005b61028c60048036038101906102879190612434565b6109e8565b60405161029991906127d6565b60405180910390f35b6102bc60048036038101906102b7919061223b565b610a9a565b6040516102c99190612aba565b60405180910390f35b6102da610b52565b005b6102f660048036038101906102f19190612434565b610bda565b60405161030391906127d6565b60405180910390f35b610314610bec565b60405161032191906127d6565b60405180910390f35b610332610c15565b60405161033f9190612858565b60405180910390f35b610362600480360381019061035d919061236a565b610ca7565b005b61037e60048036038101906103799190612434565b610cbd565b60405161038b9190612858565b60405180910390f35b6103ae60048036038101906103a991906123a6565b610d51565b005b6103b861102a565b6040516103c59190612858565b60405180910390f35b6103e860048036038101906103e391906122ef565b6110b8565b005b61040460048036038101906103ff91906123a6565b61111a565b6040516104119190612aba565b60405180910390f35b610434600480360381019061042f9190612434565b61114b565b6040516104419190612858565b60405180910390f35b6104526111f2565b60405161045f9190612858565b60405180910390f35b610482600480360381019061047d9190612434565b611280565b60405161048f9190612aba565b60405180910390f35b6104b260048036038101906104ad9190612264565b6112a4565b6040516104bf919061283d565b60405180910390f35b6104e260048036038101906104dd919061223b565b611338565b005b60007f80ac58cd000000000000000000000000000000000000000000000000000000007bffffffffffffffffffffffffffffffffffffffffffffffffffffffff1916827bffffffffffffffffffffffffffffffffffffffffffffffffffffffff191614806105af57507f5b5e139f000000000000000000000000000000000000000000000000000000007bffffffffffffffffffffffffffffffffffffffffffffffffffffffff1916827bffffffffffffffffffffffffffffffffffffffffffffffffffffffff1916145b806105bf57506105be82611430565b5b9050919050565b6060600180546105d590612d07565b80601f016020809104026020016040519081016040528092919081815260200182805461060190612d07565b801561064e5780601f106106235761010080835404028352916020019161064e565b820191906000526020600020905b81548152906001019060200180831161063157829003601f168201915b5050505050905090565b60006106638261149a565b6106a2576040517f08c379a0000000000000000000000000000000000000000000000000000000008152600401610699906129da565b60405180910390fd5b6005600083815260200190815260200160002060009054906101000a900473ffffffffffffffffffffffffffffffffffffffff169050919050565b60006106e8826109e8565b90508073ffffffffffffffffffffffffffffffffffffffff168373ffffffffffffffffffffffffffffffffffffffff161415610759576040517f08c379a000000000000000000000000000000000000000000000000000000000815260040161075090612a3a565b60405180910390fd5b8073ffffffffffffffffffffffffffffffffffffffff16610778611506565b73ffffffffffffffffffffffffffffffffffffffff1614806107a757506107a6816107a1611506565b6112a4565b5b6107e6576040517f08c379a00000000000000000000000000000000000000000000000000000000081526004016107dd9061295a565b60405180910390fd5b6107f0838361150e565b505050565b6107fd611506565b73ffffffffffffffffffffffffffffffffffffffff1661081b610bec565b73ffffffffffffffffffffffffffffffffffffffff1614610871576040517f08c379a0000000000000000000000000000000000000000000000000000000008152600401610868906129fa565b60405180910390fd5b6000600a8054905011156108ba576040517f08c379a00000000000000000000000000000000000000000000000000000000081526004016108b190612a9a565b60405180910390fd5b60005b600581101561090c57600a8190806001815401808255809150506001900390600052602060002001600090919091909150556108f933826115c7565b808061090490612d6a565b9150506108bd565b50600a600b60003373ffffffffffffffffffffffffffffffffffffffff1673ffffffffffffffffffffffffffffffffffffffff16815260200190815260200160002090805461095c9291906120fb565b50565b61097061096a611506565b826117a1565b6109af576040517f08c379a00000000000000000000000000000000000000000000000000000000081526004016109a690612a5a565b60405180910390fd5b6109ba83838361187f565b505050565b60006012905090565b6109e3838383604051806020016040528060008152506110b8565b505050565b6000806003600084815260200190815260200160002060009054906101000a900473ffffffffffffffffffffffffffffffffffffffff169050600073ffffffffffffffffffffffffffffffffffffffff168173ffffffffffffffffffffffffffffffffffffffff161415610a91576040517f08c379a0000000000000000000000000000000000000000000000000000000008152600401610a889061299a565b60405180910390fd5b80915050919050565b60008073ffffffffffffffffffffffffffffffffffffffff168273ffffffffffffffffffffffffffffffffffffffff161415610b0b576040517f08c379a0000000000000000000000000000000000000000000000000000000008152600401610b029061297a565b60405180910390fd5b600460008373ffffffffffffffffffffffffffffffffffffffff1673ffffffffffffffffffffffffffffffffffffffff168152602001908152602001600020549050919050565b610b5a611506565b73ffffffffffffffffffffffffffffffffffffffff16610b78610bec565b73ffffffffffffffffffffffffffffffffffffffff1614610bce576040517f08c379a0000000000000000000000000000000000000000000000000000000008152600401610bc5906129fa565b60405180910390fd5b610bd86000611ae6565b565b6000610be5826109e8565b9050919050565b60008060009054906101000a900473ffffffffffffffffffffffffffffffffffffffff16905090565b606060028054610c2490612d07565b80601f0160208091040260200160405190810160405280929190818152602001828054610c5090612d07565b8015610c9d5780601f10610c7257610100808354040283529160200191610c9d565b820191906000526020600020905b815481529060010190602001808311610c8057829003601f168201915b5050505050905090565b610cb9610cb2611506565b8383611baa565b5050565b606060098054610ccc90612d07565b80601f0160208091040260200160405190810160405280929190818152602001828054610cf890612d07565b8015610d455780601f10610d1a57610100808354040283529160200191610d45565b820191906000526020600020905b815481529060010190602001808311610d2857829003601f168201915b50505050509050919050565b6000600b60003373ffffffffffffffffffffffffffffffffffffffff1673ffffffffffffffffffffffffffffffffffffffff16815260200190815260200160002090506000805b8280549050811015610e0c5783838281548110610dde577f4e487b7100000000000000000000000000000000000000000000000000000000600052603260045260246000fd5b90600052602060002001541415610df85760019150610e0c565b600181610e059190612b89565b9050610d98565b81610e4c576040517f08c379a0000000000000000000000000000000000000000000000000000000008152600401610e4390612a7a565b60405180910390fd5b60008190505b60018480549050610e639190612c10565b811015610f145783600182610e789190612b89565b81548110610eaf577f4e487b7100000000000000000000000000000000000000000000000000000000600052603260045260246000fd5b9060005260206000200154848281548110610ef3577f4e487b7100000000000000000000000000000000000000000000000000000000600052603260045260246000fd5b90600052602060002001819055508080610f0c90612d6a565b915050610e52565b5082805480610f4c577f4e487b7100000000000000000000000000000000000000000000000000000000600052603160045260246000fd5b60019003818190600052602060002001600090559055600b60008673ffffffffffffffffffffffffffffffffffffffff1673ffffffffffffffffffffffffffffffffffffffff168152602001908152602001600020849080600181540180825580915050600190039060005260206000200160009091909190915055838573ffffffffffffffffffffffffffffffffffffffff163373ffffffffffffffffffffffffffffffffffffffff167fddf252ad1be2c89b69c2b068fc378daa952ba7f163c4a11628f55a4df523b3ef60405160405180910390a45050505050565b6008805461103790612d07565b80601f016020809104026020016040519081016040528092919081815260200182805461106390612d07565b80156110b05780601f10611085576101008083540402835291602001916110b0565b820191906000526020600020905b81548152906001019060200180831161109357829003601f168201915b505050505081565b6110c96110c3611506565b836117a1565b611108576040517f08c379a00000000000000000000000000000000000000000000000000000000081526004016110ff90612a5a565b60405180910390fd5b61111484848484611d17565b50505050565b600b602052816000526040600020818154811061113657600080fd5b90600052602060002001600091509150505481565b60606111568261149a565b611195576040517f08c379a000000000000000000000000000000000000000000000000000000000815260040161118c90612a1a565b60405180910390fd5b600061119f611d73565b905060008151116111bf57604051806020016040528060008152506111ea565b806111c984611d8a565b6040516020016111da9291906127b2565b6040516020818303038152906040525b915050919050565b600780546111ff90612d07565b80601f016020809104026020016040519081016040528092919081815260200182805461122b90612d07565b80156112785780601f1061124d57610100808354040283529160200191611278565b820191906000526020600020905b81548152906001019060200180831161125b57829003601f168201915b505050505081565b600a818154811061129057600080fd5b906000526020600020016000915090505481565b6000600660008473ffffffffffffffffffffffffffffffffffffffff1673ffffffffffffffffffffffffffffffffffffffff16815260200190815260200160002060008373ffffffffffffffffffffffffffffffffffffffff1673ffffffffffffffffffffffffffffffffffffffff16815260200190815260200160002060009054906101000a900460ff16905092915050565b611340611506565b73ffffffffffffffffffffffffffffffffffffffff1661135e610bec565b73ffffffffffffffffffffffffffffffffffffffff16146113b4576040517f08c379a00000000000000000000000000000000000000000000000000000000081526004016113ab906129fa565b60405180910390fd5b600073ffffffffffffffffffffffffffffffffffffffff168173ffffffffffffffffffffffffffffffffffffffff161415611424576040517f08c379a000000000000000000000000000000000000000000000000000000000815260040161141b9061289a565b60405180910390fd5b61142d81611ae6565b50565b60007f01ffc9a7000000000000000000000000000000000000000000000000000000007bffffffffffffffffffffffffffffffffffffffffffffffffffffffff1916827bffffffffffffffffffffffffffffffffffffffffffffffffffffffff1916149050919050565b60008073ffffffffffffffffffffffffffffffffffffffff166003600084815260200190815260200160002060009054906101000a900473ffffffffffffffffffffffffffffffffffffffff1673ffffffffffffffffffffffffffffffffffffffff1614159050919050565b600033905090565b816005600083815260200190815260200160002060006101000a81548173ffffffffffffffffffffffffffffffffffffffff021916908373ffffffffffffffffffffffffffffffffffffffff160217905550808273ffffffffffffffffffffffffffffffffffffffff16611581836109e8565b73ffffffffffffffffffffffffffffffffffffffff167f8c5be1e5ebec7d5bd14f71427d1e84f3dd0314c0f7b2291e5b200ac8c7c3b92560405160405180910390a45050565b600073ffffffffffffffffffffffffffffffffffffffff168273ffffffffffffffffffffffffffffffffffffffff161415611637576040517f08c379a000000000000000000000000000000000000000000000000000000000815260040161162e906129ba565b60405180910390fd5b6116408161149a565b15611680576040517f08c379a0000000000000000000000000000000000000000000000000000000008152600401611677906128da565b60405180910390fd5b61168c60008383611f37565b6001600460008473ffffffffffffffffffffffffffffffffffffffff1673ffffffffffffffffffffffffffffffffffffffff16815260200190815260200160002060008282546116dc9190612b89565b92505081905550816003600083815260200190815260200160002060006101000a81548173ffffffffffffffffffffffffffffffffffffffff021916908373ffffffffffffffffffffffffffffffffffffffff160217905550808273ffffffffffffffffffffffffffffffffffffffff16600073ffffffffffffffffffffffffffffffffffffffff167fddf252ad1be2c89b69c2b068fc378daa952ba7f163c4a11628f55a4df523b3ef60405160405180910390a461179d60008383611f3c565b5050565b60006117ac8261149a565b6117eb576040517f08c379a00000000000000000000000000000000000000000000000000000000081526004016117e29061293a565b60405180910390fd5b60006117f6836109e8565b90508073ffffffffffffffffffffffffffffffffffffffff168473ffffffffffffffffffffffffffffffffffffffff16148061186557508373ffffffffffffffffffffffffffffffffffffffff1661184d84610658565b73ffffffffffffffffffffffffffffffffffffffff16145b80611876575061187581856112a4565b5b91505092915050565b8273ffffffffffffffffffffffffffffffffffffffff1661189f826109e8565b73ffffffffffffffffffffffffffffffffffffffff16146118f5576040517f08c379a00000000000000000000000000000000000000000000000000000000081526004016118ec906128ba565b60405180910390fd5b600073ffffffffffffffffffffffffffffffffffffffff168273ffffffffffffffffffffffffffffffffffffffff161415611965576040517f08c379a000000000000000000000000000000000000000000000000000000000815260040161195c906128fa565b60405180910390fd5b611970838383611f37565b61197b60008261150e565b6001600460008573ffffffffffffffffffffffffffffffffffffffff1673ffffffffffffffffffffffffffffffffffffffff16815260200190815260200160002060008282546119cb9190612c10565b925050819055506001600460008473ffffffffffffffffffffffffffffffffffffffff1673ffffffffffffffffffffffffffffffffffffffff1681526020019081526020016000206000828254611a229190612b89565b92505081905550816003600083815260200190815260200160002060006101000a81548173ffffffffffffffffffffffffffffffffffffffff021916908373ffffffffffffffffffffffffffffffffffffffff160217905550808273ffffffffffffffffffffffffffffffffffffffff168473ffffffffffffffffffffffffffffffffffffffff167fddf252ad1be2c89b69c2b068fc378daa952ba7f163c4a11628f55a4df523b3ef60405160405180910390a4611ae1838383611f3c565b505050565b60008060009054906101000a900473ffffffffffffffffffffffffffffffffffffffff169050816000806101000a81548173ffffffffffffffffffffffffffffffffffffffff021916908373ffffffffffffffffffffffffffffffffffffffff1602179055508173ffffffffffffffffffffffffffffffffffffffff168173ffffffffffffffffffffffffffffffffffffffff167f8be0079c531659141344cd1fd0a4f28419497f9722a3daafe3b4186f6b6457e060405160405180910390a35050565b8173ffffffffffffffffffffffffffffffffffffffff168373ffffffffffffffffffffffffffffffffffffffff161415611c19576040517f08c379a0000000000000000000000000000000000000000000000000000000008152600401611c109061291a565b60405180910390fd5b80600660008573ffffffffffffffffffffffffffffffffffffffff1673ffffffffffffffffffffffffffffffffffffffff16815260200190815260200160002060008473ffffffffffffffffffffffffffffffffffffffff1673ffffffffffffffffffffffffffffffffffffffff16815260200190815260200160002060006101000a81548160ff0219169083151502179055508173ffffffffffffffffffffffffffffffffffffffff168373ffffffffffffffffffffffffffffffffffffffff167f17307eab39ab6107e8899845ad3d59bd9653f200f220920489ca2b5937696c3183604051611d0a919061283d565b60405180910390a3505050565b611d2284848461187f565b611d2e84848484611f41565b611d6d576040517f08c379a0000000000000000000000000000000000000000000000000000000008152600401611d649061287a565b60405180910390fd5b50505050565b606060405180602001604052806000815250905090565b60606000821415611dd2576040518060400160405280600181526020017f30000000000000000000000000000000000000000000000000000000000000008152509050611f32565b600082905060005b60008214611e04578080611ded90612d6a565b915050600a82611dfd9190612bdf565b9150611dda565b60008167ffffffffffffffff811115611e46577f4e487b7100000000000000000000000000000000000000000000000000000000600052604160045260246000fd5b6040519080825280601f01601f191660200182016040528015611e785781602001600182028036833780820191505090505b5090505b60008514611f2b57600182611e919190612c10565b9150600a85611ea09190612db3565b6030611eac9190612b89565b60f81b818381518110611ee8577f4e487b7100000000000000000000000000000000000000000000000000000000600052603260045260246000fd5b60200101907effffffffffffffffffffffffffffffffffffffffffffffffffffffffffffff1916908160001a905350600a85611f249190612bdf565b9450611e7c565b8093505050505b919050565b505050565b505050565b6000611f628473ffffffffffffffffffffffffffffffffffffffff166120d8565b156120cb578373ffffffffffffffffffffffffffffffffffffffff1663150b7a02611f8b611506565b8786866040518563ffffffff1660e01b8152600401611fad94939291906127f1565b602060405180830381600087803b158015611fc757600080fd5b505af1925050508015611ff857506040513d601f19601f82011682018060405250810190611ff5919061240b565b60015b61207b573d8060008114612028576040519150601f19603f3d011682016040523d82523d6000602084013e61202d565b606091505b50600081511415612073576040517f08c379a000000000000000000000000000000000000000000000000000000000815260040161206a9061287a565b60405180910390fd5b805181602001fd5b63150b7a0260e01b7bffffffffffffffffffffffffffffffffffffffffffffffffffffffff1916817bffffffffffffffffffffffffffffffffffffffffffffffffffffffff1916149150506120d0565b600190505b949350505050565b6000808273ffffffffffffffffffffffffffffffffffffffff163b119050919050565b82805482825590600052602060002090810192821561213c5760005260206000209182015b8281111561213b578254825591600101919060010190612120565b5b509050612149919061214d565b5090565b5b8082111561216657600081600090555060010161214e565b5090565b600061217d61217884612b15565b612af0565b90508281526020810184848401111561219557600080fd5b6121a0848285612cc5565b509392505050565b6000813590506121b78161335b565b92915050565b6000813590506121cc81613372565b92915050565b6000813590506121e181613389565b92915050565b6000815190506121f681613389565b92915050565b600082601f83011261220d57600080fd5b813561221d84826020860161216a565b91505092915050565b600081359050612235816133a0565b92915050565b60006020828403121561224d57600080fd5b600061225b848285016121a8565b91505092915050565b6000806040838503121561227757600080fd5b6000612285858286016121a8565b9250506020612296858286016121a8565b9150509250929050565b6000806000606084860312156122b557600080fd5b60006122c3868287016121a8565b93505060206122d4868287016121a8565b92505060406122e586828701612226565b9150509250925092565b6000806000806080858703121561230557600080fd5b6000612313878288016121a8565b9450506020612324878288016121a8565b935050604061233587828801612226565b925050606085013567ffffffffffffffff81111561235257600080fd5b61235e878288016121fc565b91505092959194509250565b6000806040838503121561237d57600080fd5b600061238b858286016121a8565b925050602061239c858286016121bd565b9150509250929050565b600080604083850312156123b957600080fd5b60006123c7858286016121a8565b92505060206123d885828601612226565b9150509250929050565b6000602082840312156123f457600080fd5b6000612402848285016121d2565b91505092915050565b60006020828403121561241d57600080fd5b600061242b848285016121e7565b91505092915050565b60006020828403121561244657600080fd5b600061245484828501612226565b91505092915050565b61246681612c44565b82525050565b61247581612c56565b82525050565b600061248682612b46565b6124908185612b5c565b93506124a0818560208601612cd4565b6124a981612ea0565b840191505092915050565b60006124bf82612b51565b6124c98185612b6d565b93506124d9818560208601612cd4565b6124e281612ea0565b840191505092915050565b60006124f882612b51565b6125028185612b7e565b9350612512818560208601612cd4565b80840191505092915050565b600061252b603283612b6d565b915061253682612eb1565b604082019050919050565b600061254e602683612b6d565b915061255982612f00565b604082019050919050565b6000612571602583612b6d565b915061257c82612f4f565b604082019050919050565b6000612594601c83612b6d565b915061259f82612f9e565b602082019050919050565b60006125b7602483612b6d565b91506125c282612fc7565b604082019050919050565b60006125da601983612b6d565b91506125e582613016565b602082019050919050565b60006125fd602c83612b6d565b91506126088261303f565b604082019050919050565b6000612620603883612b6d565b915061262b8261308e565b604082019050919050565b6000612643602a83612b6d565b915061264e826130dd565b604082019050919050565b6000612666602983612b6d565b91506126718261312c565b604082019050919050565b6000612689602083612b6d565b91506126948261317b565b602082019050919050565b60006126ac602c83612b6d565b91506126b7826131a4565b604082019050919050565b60006126cf602083612b6d565b91506126da826131f3565b602082019050919050565b60006126f2602f83612b6d565b91506126fd8261321c565b604082019050919050565b6000612715602183612b6d565b91506127208261326b565b604082019050919050565b6000612738603183612b6d565b9150612743826132ba565b604082019050919050565b600061275b601f83612b6d565b915061276682613309565b602082019050919050565b600061277e601283612b6d565b915061278982613332565b602082019050919050565b61279d81612cae565b82525050565b6127ac81612cb8565b82525050565b60006127be82856124ed565b91506127ca82846124ed565b91508190509392505050565b60006020820190506127eb600083018461245d565b92915050565b6000608082019050612806600083018761245d565b612813602083018661245d565b6128206040830185612794565b8181036060830152612832818461247b565b905095945050505050565b6000602082019050612852600083018461246c565b92915050565b6000602082019050818103600083015261287281846124b4565b905092915050565b600060208201905081810360008301526128938161251e565b9050919050565b600060208201905081810360008301526128b381612541565b9050919050565b600060208201905081810360008301526128d381612564565b9050919050565b600060208201905081810360008301526128f381612587565b9050919050565b60006020820190508181036000830152612913816125aa565b9050919050565b60006020820190508181036000830152612933816125cd565b9050919050565b60006020820190508181036000830152612953816125f0565b9050919050565b6000602082019050818103600083015261297381612613565b9050919050565b6000602082019050818103600083015261299381612636565b9050919050565b600060208201905081810360008301526129b381612659565b9050919050565b600060208201905081810360008301526129d38161267c565b9050919050565b600060208201905081810360008301526129f38161269f565b9050919050565b60006020820190508181036000830152612a13816126c2565b9050919050565b60006020820190508181036000830152612a33816126e5565b9050919050565b60006020820190508181036000830152612a5381612708565b9050919050565b60006020820190508181036000830152612a738161272b565b9050919050565b60006020820190508181036000830152612a938161274e565b9050919050565b60006020820190508181036000830152612ab381612771565b9050919050565b6000602082019050612acf6000830184612794565b92915050565b6000602082019050612aea60008301846127a3565b92915050565b6000612afa612b0b565b9050612b068282612d39565b919050565b6000604051905090565b600067ffffffffffffffff821115612b3057612b2f612e71565b5b612b3982612ea0565b9050602081019050919050565b600081519050919050565b600081519050919050565b600082825260208201905092915050565b600082825260208201905092915050565b600081905092915050565b6000612b9482612cae565b9150612b9f83612cae565b9250827fffffffffffffffffffffffffffffffffffffffffffffffffffffffffffffffff03821115612bd457612bd3612de4565b5b828201905092915050565b6000612bea82612cae565b9150612bf583612cae565b925082612c0557612c04612e13565b5b828204905092915050565b6000612c1b82612cae565b9150612c2683612cae565b925082821015612c3957612c38612de4565b5b828203905092915050565b6000612c4f82612c8e565b9050919050565b60008115159050919050565b60007fffffffff0000000000000000000000000000000000000000000000000000000082169050919050565b600073ffffffffffffffffffffffffffffffffffffffff82169050919050565b6000819050919050565b600060ff82169050919050565b82818337600083830152505050565b60005b83811015612cf2578082015181840152602081019050612cd7565b83811115612d01576000848401525b50505050565b60006002820490506001821680612d1f57607f821691505b60208210811415612d3357612d32612e42565b5b50919050565b612d4282612ea0565b810181811067ffffffffffffffff82111715612d6157612d60612e71565b5b80604052505050565b6000612d7582612cae565b91507fffffffffffffffffffffffffffffffffffffffffffffffffffffffffffffffff821415612da857612da7612de4565b5b600182019050919050565b6000612dbe82612cae565b9150612dc983612cae565b925082612dd957612dd8612e13565b5b828206905092915050565b7f4e487b7100000000000000000000000000000000000000000000000000000000600052601160045260246000fd5b7f4e487b7100000000000000000000000000000000000000000000000000000000600052601260045260246000fd5b7f4e487b7100000000000000000000000000000000000000000000000000000000600052602260045260246000fd5b7f4e487b7100000000000000000000000000000000000000000000000000000000600052604160045260246000fd5b6000601f19601f8301169050919050565b7f4552433732313a207472616e7366657220746f206e6f6e20455243373231526560008201527f63656976657220696d706c656d656e7465720000000000000000000000000000602082015250565b7f4f776e61626c653a206e6577206f776e657220697320746865207a65726f206160008201527f6464726573730000000000000000000000000000000000000000000000000000602082015250565b7f4552433732313a207472616e736665722066726f6d20696e636f72726563742060008201527f6f776e6572000000000000000000000000000000000000000000000000000000602082015250565b7f4552433732313a20746f6b656e20616c7265616479206d696e74656400000000600082015250565b7f4552433732313a207472616e7366657220746f20746865207a65726f2061646460008201527f7265737300000000000000000000000000000000000000000000000000000000602082015250565b7f4552433732313a20617070726f766520746f2063616c6c657200000000000000600082015250565b7f4552433732313a206f70657261746f7220717565727920666f72206e6f6e657860008201527f697374656e7420746f6b656e0000000000000000000000000000000000000000602082015250565b7f4552433732313a20617070726f76652063616c6c6572206973206e6f74206f7760008201527f6e6572206e6f7220617070726f76656420666f7220616c6c0000000000000000602082015250565b7f4552433732313a2062616c616e636520717565727920666f7220746865207a6560008201527f726f206164647265737300000000000000000000000000000000000000000000602082015250565b7f4552433732313a206f776e657220717565727920666f72206e6f6e657869737460008201527f656e7420746f6b656e0000000000000000000000000000000000000000000000602082015250565b7f4552433732313a206d696e7420746f20746865207a65726f2061646472657373600082015250565b7f4552433732313a20617070726f76656420717565727920666f72206e6f6e657860008201527f697374656e7420746f6b656e0000000000000000000000000000000000000000602082015250565b7f4f776e61626c653a2063616c6c6572206973206e6f7420746865206f776e6572600082015250565b7f4552433732314d657461646174613a2055524920717565727920666f72206e6f60008201527f6e6578697374656e7420746f6b656e0000000000000000000000000000000000602082015250565b7f4552433732313a20617070726f76616c20746f2063757272656e74206f776e6560008201527f7200000000000000000000000000000000000000000000000000000000000000602082015250565b7f4552433732313a207472616e736665722063616c6c6572206973206e6f74206f60008201527f776e6572206e6f7220617070726f766564000000000000000000000000000000602082015250565b7f6163636f756e742073686f756c6420636f6e7461696e7320746f6b656e496400600082015250565b7f6f6e6c792063616e206d696e74206f6e63650000000000000000000000000000600082015250565b61336481612c44565b811461336f57600080fd5b50565b61337b81612c56565b811461338657600080fd5b50565b61339281612c62565b811461339d57600080fd5b50565b6133a981612cae565b81146133b457600080fd5b5056fea2646970667358221220df284a06feb5d8dcaf3f26c7d24a0efef0796a34a096797d475548a8aeb1049b64736f6c63430008040033307838333431333245346532446230343733353130303435353634384637343836303838396362653839",
  "linkReferences": {},
  "deployedLinkReferences": {}
}