{
  "_format": "hh-sol-artifact-1",
  "contractName": "NFTtoken",
  "sourceName": "contracts/NFTtoken.sol",
  "abi": [
    {
      "inputs": [],
      "stateMutability": "nonpayable",
      "type": "constructor"
    },
    {
      "anonymous": false,
      "inputs": [
        {
          "indexed": true,
          "internalType": "address",
          "name": "owner",
          "type": "address"
        },
        {
          "indexed": true,
          "internalType": "address",
          "name": "approved",
          "type": "address"
        },
        {
          "indexed": true,
          "internalType": "uint256",
          "name": "tokenId",
          "type": "uint256"
        }
      ],
      "name": "Approval",
      "type": "event"
    },
    {
      "anonymous": false,
      "inputs": [
        {
          "indexed": true,
          "internalType": "address",
          "name": "owner",
          "type": "address"
        },
        {
          "indexed": true,
          "internalType": "address",
          "name": "operator",
          "type": "address"
        },
        {
          "indexed": false,
          "internalType": "bool",
          "name": "approved",
          "type": "bool"
        }
      ],
      "name": "ApprovalForAll",
      "type": "event"
    },
    {
      "anonymous": false,
      "inputs": [
        {
          "indexed": true,
          "internalType": "address",
          "name": "previousOwner",
          "type": "address"
        },
        {
          "indexed": true,
          "internalType": "address",
          "name": "newOwner",
          "type": "address"
        }
      ],
      "name": "OwnershipTransferred",
      "type": "event"
    },
    {
      "anonymous": false,
      "inputs": [
        {
          "indexed": true,
          "internalType": "address",
          "name": "from",
          "type": "address"
        },
        {
          "indexed": true,
          "internalType": "address",
          "name": "to",
          "type": "address"
        },
        {
          "indexed": true,
          "internalType": "uint256",
          "name": "tokenId",
          "type": "uint256"
        }
      ],
      "name": "Transfer",
      "type": "event"
    },
    {
      "inputs": [],
      "name": "_name",
      "outputs": [
        {
          "internalType": "string",
          "name": "",
          "type": "string"
        }
      ],
      "stateMutability": "view",
      "type": "function"
    },
    {
      "inputs": [],
      "name": "_symbol",
      "outputs": [
        {
          "internalType": "string",
          "name": "",
          "type": "string"
        }
      ],
      "stateMutability": "view",
      "type": "function"
    },
    {
      "inputs": [
        {
          "internalType": "address",
          "name": "",
          "type": "address"
        },
        {
          "internalType": "uint256",
          "name": "",
          "type": "uint256"
        }
      ],
      "name": "addrtokenIds",
      "outputs": [
        {
          "internalType": "uint256",
          "name": "",
          "type": "uint256"
        }
      ],
      "stateMutability": "view",
      "type": "function"
    },
    {
      "inputs": [
        {
          "internalType": "address",
          "name": "to",
          "type": "address"
        },
        {
          "internalType": "uint256",
          "name": "tokenId",
          "type": "uint256"
        }
      ],
      "name": "approve",
      "outputs": [],
      "stateMutability": "nonpayable",
      "type": "function"
    },
    {
      "inputs": [
        {
          "internalType": "address",
          "name": "owner",
          "type": "address"
        }
      ],
      "name": "balanceOf",
      "outputs": [
        {
          "internalType": "uint256",
          "name": "",
          "type": "uint256"
        }
      ],
      "stateMutability": "view",
      "type": "function"
    },
    {
      "inputs": [
        {
          "internalType": "uint256",
          "name": "tokenId",
          "type": "uint256"
        }
      ],
      "name": "getApproved",
      "outputs": [
        {
          "internalType": "address",
          "name": "",
          "type": "address"
        }
      ],
      "stateMutability": "view",
      "type": "function"
    },
    {
      "inputs": [
        {
          "internalType": "address",
          "name": "owner",
          "type": "address"
        },
        {
          "internalType": "address",
          "name": "operator",
          "type": "address"
        }
      ],
      "name": "isApprovedForAll",
      "outputs": [
        {
          "internalType": "bool",
          "name": "",
          "type": "bool"
        }
      ],
      "stateMutability": "view",
      "type": "function"
    },
    {
      "inputs": [],
      "name": "mint",
      "outputs": [],
      "stateMutability": "nonpayable",
      "type": "function"
    },
    {
      "inputs": [],
      "name": "name",
      "outputs": [
        {
          "internalType": "string",
          "name": "",
          "type": "string"
        }
      ],
      "stateMutability": "view",
      "type": "function"
    },
    {
      "inputs": [],
      "name": "owner",
      "outputs": [
        {
          "internalType": "address",
          "name": "",
          "type": "address"
        }
      ],
      "stateMutability": "view",
      "type": "function"
    },
    {
      "inputs": [
        {
          "internalType": "uint256",
          "name": "tokenId",
          "type": "uint256"
        }
      ],
      "name": "ownerOf",
      "outputs": [
        {
          "internalType": "address",
          "name": "",
          "type": "address"
        }
      ],
      "stateMutability": "view",
      "type": "function"
    },
    {
      "inputs": [
        {
          "internalType": "uint256",
          "name": "_tokenId",
          "type": "uint256"
        }
      ],
      "name": "ownerOftoken",
      "outputs": [
        {
          "internalType": "address",
          "name": "owner",
          "type": "address"
        }
      ],
      "stateMutability": "nonpayable",
      "type": "function"
    },
    {
      "inputs": [],
      "name": "renounceOwnership",
      "outputs": [],
      "stateMutability": "nonpayable",
      "type": "function"
    },
    {
      "inputs": [
        {
          "internalType": "address",
          "name": "from",
          "type": "address"
        },
        {
          "internalType": "address",
          "name": "to",
          "type": "address"
        },
        {
          "internalType": "uint256",
          "name": "tokenId",
          "type": "uint256"
        }
      ],
      "name": "safeTransferFrom",
      "outputs": [],
      "stateMutability": "nonpayable",
      "type": "function"
    },
    {
      "inputs": [
        {
          "internalType": "address",
          "name": "from",
          "type": "address"
        },
        {
          "internalType": "address",
          "name": "to",
          "type": "address"
        },
        {
          "internalType": "uint256",
          "name": "tokenId",
          "type": "uint256"
        },
        {
          "internalType": "bytes",
          "name": "_data",
          "type": "bytes"
        }
      ],
      "name": "safeTransferFrom",
      "outputs": [],
      "stateMutability": "nonpayable",
      "type": "function"
    },
    {
      "inputs": [
        {
          "internalType": "address",
          "name": "operator",
          "type": "address"
        },
        {
          "internalType": "bool",
          "name": "approved",
          "type": "bool"
        }
      ],
      "name": "setApprovalForAll",
      "outputs": [],
      "stateMutability": "nonpayable",
      "type": "function"
    },
    {
      "inputs": [
        {
          "internalType": "bytes4",
          "name": "interfaceId",
          "type": "bytes4"
        }
      ],
      "name": "supportsInterface",
      "outputs": [
        {
          "internalType": "bool",
          "name": "",
          "type": "bool"
        }
      ],
      "stateMutability": "view",
      "type": "function"
    },
    {
      "inputs": [],
      "name": "symbol",
      "outputs": [
        {
          "internalType": "string",
          "name": "",
          "type": "string"
        }
      ],
      "stateMutability": "view",
      "type": "function"
    },
    {
      "inputs": [
        {
          "internalType": "uint256",
          "name": "",
          "type": "uint256"
        }
      ],
      "name": "tarots",
      "outputs": [
        {
          "internalType": "uint256",
          "name": "",
          "type": "uint256"
        }
      ],
      "stateMutability": "view",
      "type": "function"
    },
    {
      "inputs": [
        {
          "internalType": "uint256",
          "name": "tokenId",
          "type": "uint256"
        }
      ],
      "name": "tokenURI",
      "outputs": [
        {
          "internalType": "string",
          "name": "",
          "type": "string"
        }
      ],
      "stateMutability": "view",
      "type": "function"
    },
    {
      "inputs": [
        {
          "internalType": "address",
          "name": "_to",
          "type": "address"
        },
        {
          "internalType": "uint256",
          "name": "_tokenId",
          "type": "uint256"
        }
      ],
      "name": "transfer",
      "outputs": [],
      "stateMutability": "nonpayable",
      "type": "function"
    },
    {
      "inputs": [
        {
          "internalType": "address",
          "name": "from",
          "type": "address"
        },
        {
          "internalType": "address",
          "name": "to",
          "type": "address"
        },
        {
          "internalType": "uint256",
          "name": "tokenId",
          "type": "uint256"
        }
      ],
      "name": "transferFrom",
      "outputs": [],
      "stateMutability": "nonpayable",
      "type": "function"
    },
    {
      "inputs": [
        {
          "internalType": "address",
          "name": "newOwner",
          "type": "address"
        }
      ],
      "name": "transferOwnership",
      "outputs": [],
      "stateMutability": "nonpayable",
      "type": "function"
    }
  ],
  "bytecode": "0x60806040526040518060400160405280601381526020017f4865726f6573206f66205065616365204e4654000000000000000000000000008152506007908051906020019062000051929190620002fa565b506040518060400160405280600781526020017f434e4e5f4e465400000000000000000000000000000000000000000000000000815250600890805190602001906200009f929190620002fa565b50348015620000ad57600080fd5b5060078054620000bd90620003aa565b80601f0160208091040260200160405190810160405280929190818152602001828054620000eb90620003aa565b80156200013c5780601f1062000110576101008083540402835291602001916200013c565b820191906000526020600020905b8154815290600101906020018083116200011e57829003601f168201915b5050505050600880546200015090620003aa565b80601f01602080910402602001604051908101604052809291908181526020018280546200017e90620003aa565b8015620001cf5780601f10620001a357610100808354040283529160200191620001cf565b820191906000526020600020905b815481529060010190602001808311620001b157829003601f168201915b5050505050620001f4620001e86200022e60201b60201c565b6200023660201b60201c565b81600190805190602001906200020c929190620002fa565b50806002908051906020019062000225929190620002fa565b5050506200040f565b600033905090565b60008060009054906101000a900473ffffffffffffffffffffffffffffffffffffffff169050816000806101000a81548173ffffffffffffffffffffffffffffffffffffffff021916908373ffffffffffffffffffffffffffffffffffffffff1602179055508173ffffffffffffffffffffffffffffffffffffffff168173ffffffffffffffffffffffffffffffffffffffff167f8be0079c531659141344cd1fd0a4f28419497f9722a3daafe3b4186f6b6457e060405160405180910390a35050565b8280546200030890620003aa565b90600052602060002090601f0160209004810192826200032c576000855562000378565b82601f106200034757805160ff191683800117855562000378565b8280016001018555821562000378579182015b82811115620003775782518255916020019190600101906200035a565b5b5090506200038791906200038b565b5090565b5b80821115620003a65760008160009055506001016200038c565b5090565b60006002820490506001821680620003c357607f821691505b60208210811415620003da57620003d9620003e0565b5b50919050565b7f4e487b7100000000000000000000000000000000000000000000000000000000600052602260045260246000fd5b6132a5806200041f6000396000f3fe608060405234801561001057600080fd5b506004361061014d5760003560e01c80638da5cb5b116100c3578063c82b1b4c1161007c578063c82b1b4c14610376578063c87b56dd146103a6578063d28d8852146103d6578063e3b19979146103f4578063e985e9c514610424578063f2fde38b146104545761014d565b80638da5cb5b146102c857806395d89b41146102e6578063a22cb46514610304578063a9059cbb14610320578063b09f12661461033c578063b88d4fde1461035a5761014d565b806323b872dd1161011557806323b872dd146101f657806342842e0e146102125780636352211e1461022e57806370a082311461025e578063715018a61461028e57806386c58dbd146102985761014d565b806301ffc9a71461015257806306fdde0314610182578063081812fc146101a0578063095ea7b3146101d05780631249c58b146101ec575b600080fd5b61016c600480360381019061016791906122d1565b610470565b604051610179919061271d565b60405180910390f35b61018a610552565b6040516101979190612738565b60405180910390f35b6101ba60048036038101906101b59190612323565b6105e4565b6040516101c791906126b6565b60405180910390f35b6101ea60048036038101906101e59190612295565b610669565b005b6101f4610781565b005b610210600480360381019061020b919061218f565b6108eb565b005b61022c6004803603810190610227919061218f565b61094b565b005b61024860048036038101906102439190612323565b61096b565b60405161025591906126b6565b60405180910390f35b6102786004803603810190610273919061212a565b610a1d565b604051610285919061299a565b60405180910390f35b610296610ad5565b005b6102b260048036038101906102ad9190612323565b610b5d565b6040516102bf91906126b6565b60405180910390f35b6102d0610b6f565b6040516102dd91906126b6565b60405180910390f35b6102ee610b98565b6040516102fb9190612738565b60405180910390f35b61031e60048036038101906103199190612259565b610c2a565b005b61033a60048036038101906103359190612295565b610c40565b005b610344610f19565b6040516103519190612738565b60405180910390f35b610374600480360381019061036f91906121de565b610fa7565b005b610390600480360381019061038b9190612295565b611009565b60405161039d919061299a565b60405180910390f35b6103c060048036038101906103bb9190612323565b61103a565b6040516103cd9190612738565b60405180910390f35b6103de6110e1565b6040516103eb9190612738565b60405180910390f35b61040e60048036038101906104099190612323565b61116f565b60405161041b919061299a565b60405180910390f35b61043e60048036038101906104399190612153565b611193565b60405161044b919061271d565b60405180910390f35b61046e6004803603810190610469919061212a565b611227565b005b60007f80ac58cd000000000000000000000000000000000000000000000000000000007bffffffffffffffffffffffffffffffffffffffffffffffffffffffff1916827bffffffffffffffffffffffffffffffffffffffffffffffffffffffff1916148061053b57507f5b5e139f000000000000000000000000000000000000000000000000000000007bffffffffffffffffffffffffffffffffffffffffffffffffffffffff1916827bffffffffffffffffffffffffffffffffffffffffffffffffffffffff1916145b8061054b575061054a8261131f565b5b9050919050565b60606001805461056190612bbf565b80601f016020809104026020016040519081016040528092919081815260200182805461058d90612bbf565b80156105da5780601f106105af576101008083540402835291602001916105da565b820191906000526020600020905b8154815290600101906020018083116105bd57829003601f168201915b5050505050905090565b60006105ef82611389565b61062e576040517f08c379a0000000000000000000000000000000000000000000000000000000008152600401610625906128ba565b60405180910390fd5b6005600083815260200190815260200160002060009054906101000a900473ffffffffffffffffffffffffffffffffffffffff169050919050565b60006106748261096b565b90508073ffffffffffffffffffffffffffffffffffffffff168373ffffffffffffffffffffffffffffffffffffffff1614156106e5576040517f08c379a00000000000000000000000000000000000000000000000000000000081526004016106dc9061291a565b60405180910390fd5b8073ffffffffffffffffffffffffffffffffffffffff166107046113f5565b73ffffffffffffffffffffffffffffffffffffffff16148061073357506107328161072d6113f5565b611193565b5b610772576040517f08c379a00000000000000000000000000000000000000000000000000000000081526004016107699061283a565b60405180910390fd5b61077c83836113fd565b505050565b6107896113f5565b73ffffffffffffffffffffffffffffffffffffffff166107a7610b6f565b73ffffffffffffffffffffffffffffffffffffffff16146107fd576040517f08c379a00000000000000000000000000000000000000000000000000000000081526004016107f4906128da565b60405180910390fd5b60006009805490501115610846576040517f08c379a000000000000000000000000000000000000000000000000000000000815260040161083d9061297a565b60405180910390fd5b60005b600381101561089857600981908060018154018082558091505060019003906000526020600020016000909190919091505561088533826114b6565b808061089090612c22565b915050610849565b506009600a60003373ffffffffffffffffffffffffffffffffffffffff1673ffffffffffffffffffffffffffffffffffffffff1681526020019081526020016000209080546108e8929190611fea565b50565b6108fc6108f66113f5565b82611690565b61093b576040517f08c379a00000000000000000000000000000000000000000000000000000000081526004016109329061293a565b60405180910390fd5b61094683838361176e565b505050565b61096683838360405180602001604052806000815250610fa7565b505050565b6000806003600084815260200190815260200160002060009054906101000a900473ffffffffffffffffffffffffffffffffffffffff169050600073ffffffffffffffffffffffffffffffffffffffff168173ffffffffffffffffffffffffffffffffffffffff161415610a14576040517f08c379a0000000000000000000000000000000000000000000000000000000008152600401610a0b9061287a565b60405180910390fd5b80915050919050565b60008073ffffffffffffffffffffffffffffffffffffffff168273ffffffffffffffffffffffffffffffffffffffff161415610a8e576040517f08c379a0000000000000000000000000000000000000000000000000000000008152600401610a859061285a565b60405180910390fd5b600460008373ffffffffffffffffffffffffffffffffffffffff1673ffffffffffffffffffffffffffffffffffffffff168152602001908152602001600020549050919050565b610add6113f5565b73ffffffffffffffffffffffffffffffffffffffff16610afb610b6f565b73ffffffffffffffffffffffffffffffffffffffff1614610b51576040517f08c379a0000000000000000000000000000000000000000000000000000000008152600401610b48906128da565b60405180910390fd5b610b5b60006119d5565b565b6000610b688261096b565b9050919050565b60008060009054906101000a900473ffffffffffffffffffffffffffffffffffffffff16905090565b606060028054610ba790612bbf565b80601f0160208091040260200160405190810160405280929190818152602001828054610bd390612bbf565b8015610c205780601f10610bf557610100808354040283529160200191610c20565b820191906000526020600020905b815481529060010190602001808311610c0357829003601f168201915b5050505050905090565b610c3c610c356113f5565b8383611a99565b5050565b6000600a60003373ffffffffffffffffffffffffffffffffffffffff1673ffffffffffffffffffffffffffffffffffffffff16815260200190815260200160002090506000805b8280549050811015610cfb5783838281548110610ccd577f4e487b7100000000000000000000000000000000000000000000000000000000600052603260045260246000fd5b90600052602060002001541415610ce75760019150610cfb565b600181610cf49190612a4e565b9050610c87565b81610d3b576040517f08c379a0000000000000000000000000000000000000000000000000000000008152600401610d329061295a565b60405180910390fd5b60008190505b60018480549050610d529190612ad5565b811015610e035783600182610d679190612a4e565b81548110610d9e577f4e487b7100000000000000000000000000000000000000000000000000000000600052603260045260246000fd5b9060005260206000200154848281548110610de2577f4e487b7100000000000000000000000000000000000000000000000000000000600052603260045260246000fd5b90600052602060002001819055508080610dfb90612c22565b915050610d41565b5082805480610e3b577f4e487b7100000000000000000000000000000000000000000000000000000000600052603160045260246000fd5b60019003818190600052602060002001600090559055600a60008673ffffffffffffffffffffffffffffffffffffffff1673ffffffffffffffffffffffffffffffffffffffff168152602001908152602001600020849080600181540180825580915050600190039060005260206000200160009091909190915055838573ffffffffffffffffffffffffffffffffffffffff163373ffffffffffffffffffffffffffffffffffffffff167fddf252ad1be2c89b69c2b068fc378daa952ba7f163c4a11628f55a4df523b3ef60405160405180910390a45050505050565b60088054610f2690612bbf565b80601f0160208091040260200160405190810160405280929190818152602001828054610f5290612bbf565b8015610f9f5780601f10610f7457610100808354040283529160200191610f9f565b820191906000526020600020905b815481529060010190602001808311610f8257829003601f168201915b505050505081565b610fb8610fb26113f5565b83611690565b610ff7576040517f08c379a0000000000000000000000000000000000000000000000000000000008152600401610fee9061293a565b60405180910390fd5b61100384848484611c06565b50505050565b600a602052816000526040600020818154811061102557600080fd5b90600052602060002001600091509150505481565b606061104582611389565b611084576040517f08c379a000000000000000000000000000000000000000000000000000000000815260040161107b906128fa565b60405180910390fd5b600061108e611c62565b905060008151116110ae57604051806020016040528060008152506110d9565b806110b884611c79565b6040516020016110c9929190612692565b6040516020818303038152906040525b915050919050565b600780546110ee90612bbf565b80601f016020809104026020016040519081016040528092919081815260200182805461111a90612bbf565b80156111675780601f1061113c57610100808354040283529160200191611167565b820191906000526020600020905b81548152906001019060200180831161114a57829003601f168201915b505050505081565b6009818154811061117f57600080fd5b906000526020600020016000915090505481565b6000600660008473ffffffffffffffffffffffffffffffffffffffff1673ffffffffffffffffffffffffffffffffffffffff16815260200190815260200160002060008373ffffffffffffffffffffffffffffffffffffffff1673ffffffffffffffffffffffffffffffffffffffff16815260200190815260200160002060009054906101000a900460ff16905092915050565b61122f6113f5565b73ffffffffffffffffffffffffffffffffffffffff1661124d610b6f565b73ffffffffffffffffffffffffffffffffffffffff16146112a3576040517f08c379a000000000000000000000000000000000000000000000000000000000815260040161129a906128da565b60405180910390fd5b600073ffffffffffffffffffffffffffffffffffffffff168173ffffffffffffffffffffffffffffffffffffffff161415611313576040517f08c379a000000000000000000000000000000000000000000000000000000000815260040161130a9061277a565b60405180910390fd5b61131c816119d5565b50565b60007f01ffc9a7000000000000000000000000000000000000000000000000000000007bffffffffffffffffffffffffffffffffffffffffffffffffffffffff1916827bffffffffffffffffffffffffffffffffffffffffffffffffffffffff1916149050919050565b60008073ffffffffffffffffffffffffffffffffffffffff166003600084815260200190815260200160002060009054906101000a900473ffffffffffffffffffffffffffffffffffffffff1673ffffffffffffffffffffffffffffffffffffffff1614159050919050565b600033905090565b816005600083815260200190815260200160002060006101000a81548173ffffffffffffffffffffffffffffffffffffffff021916908373ffffffffffffffffffffffffffffffffffffffff160217905550808273ffffffffffffffffffffffffffffffffffffffff166114708361096b565b73ffffffffffffffffffffffffffffffffffffffff167f8c5be1e5ebec7d5bd14f71427d1e84f3dd0314c0f7b2291e5b200ac8c7c3b92560405160405180910390a45050565b600073ffffffffffffffffffffffffffffffffffffffff168273ffffffffffffffffffffffffffffffffffffffff161415611526576040517f08c379a000000000000000000000000000000000000000000000000000000000815260040161151d9061289a565b60405180910390fd5b61152f81611389565b1561156f576040517f08c379a0000000000000000000000000000000000000000000000000000000008152600401611566906127ba565b60405180910390fd5b61157b60008383611e26565b6001600460008473ffffffffffffffffffffffffffffffffffffffff1673ffffffffffffffffffffffffffffffffffffffff16815260200190815260200160002060008282546115cb9190612a4e565b92505081905550816003600083815260200190815260200160002060006101000a81548173ffffffffffffffffffffffffffffffffffffffff021916908373ffffffffffffffffffffffffffffffffffffffff160217905550808273ffffffffffffffffffffffffffffffffffffffff16600073ffffffffffffffffffffffffffffffffffffffff167fddf252ad1be2c89b69c2b068fc378daa952ba7f163c4a11628f55a4df523b3ef60405160405180910390a461168c60008383611e2b565b5050565b600061169b82611389565b6116da576040517f08c379a00000000000000000000000000000000000000000000000000000000081526004016116d19061281a565b60405180910390fd5b60006116e58361096b565b90508073ffffffffffffffffffffffffffffffffffffffff168473ffffffffffffffffffffffffffffffffffffffff16148061175457508373ffffffffffffffffffffffffffffffffffffffff1661173c846105e4565b73ffffffffffffffffffffffffffffffffffffffff16145b8061176557506117648185611193565b5b91505092915050565b8273ffffffffffffffffffffffffffffffffffffffff1661178e8261096b565b73ffffffffffffffffffffffffffffffffffffffff16146117e4576040517f08c379a00000000000000000000000000000000000000000000000000000000081526004016117db9061279a565b60405180910390fd5b600073ffffffffffffffffffffffffffffffffffffffff168273ffffffffffffffffffffffffffffffffffffffff161415611854576040517f08c379a000000000000000000000000000000000000000000000000000000000815260040161184b906127da565b60405180910390fd5b61185f838383611e26565b61186a6000826113fd565b6001600460008573ffffffffffffffffffffffffffffffffffffffff1673ffffffffffffffffffffffffffffffffffffffff16815260200190815260200160002060008282546118ba9190612ad5565b925050819055506001600460008473ffffffffffffffffffffffffffffffffffffffff1673ffffffffffffffffffffffffffffffffffffffff16815260200190815260200160002060008282546119119190612a4e565b92505081905550816003600083815260200190815260200160002060006101000a81548173ffffffffffffffffffffffffffffffffffffffff021916908373ffffffffffffffffffffffffffffffffffffffff160217905550808273ffffffffffffffffffffffffffffffffffffffff168473ffffffffffffffffffffffffffffffffffffffff167fddf252ad1be2c89b69c2b068fc378daa952ba7f163c4a11628f55a4df523b3ef60405160405180910390a46119d0838383611e2b565b505050565b60008060009054906101000a900473ffffffffffffffffffffffffffffffffffffffff169050816000806101000a81548173ffffffffffffffffffffffffffffffffffffffff021916908373ffffffffffffffffffffffffffffffffffffffff1602179055508173ffffffffffffffffffffffffffffffffffffffff168173ffffffffffffffffffffffffffffffffffffffff167f8be0079c531659141344cd1fd0a4f28419497f9722a3daafe3b4186f6b6457e060405160405180910390a35050565b8173ffffffffffffffffffffffffffffffffffffffff168373ffffffffffffffffffffffffffffffffffffffff161415611b08576040517f08c379a0000000000000000000000000000000000000000000000000000000008152600401611aff906127fa565b60405180910390fd5b80600660008573ffffffffffffffffffffffffffffffffffffffff1673ffffffffffffffffffffffffffffffffffffffff16815260200190815260200160002060008473ffffffffffffffffffffffffffffffffffffffff1673ffffffffffffffffffffffffffffffffffffffff16815260200190815260200160002060006101000a81548160ff0219169083151502179055508173ffffffffffffffffffffffffffffffffffffffff168373ffffffffffffffffffffffffffffffffffffffff167f17307eab39ab6107e8899845ad3d59bd9653f200f220920489ca2b5937696c3183604051611bf9919061271d565b60405180910390a3505050565b611c1184848461176e565b611c1d84848484611e30565b611c5c576040517f08c379a0000000000000000000000000000000000000000000000000000000008152600401611c539061275a565b60405180910390fd5b50505050565b606060405180602001604052806000815250905090565b60606000821415611cc1576040518060400160405280600181526020017f30000000000000000000000000000000000000000000000000000000000000008152509050611e21565b600082905060005b60008214611cf3578080611cdc90612c22565b915050600a82611cec9190612aa4565b9150611cc9565b60008167ffffffffffffffff811115611d35577f4e487b7100000000000000000000000000000000000000000000000000000000600052604160045260246000fd5b6040519080825280601f01601f191660200182016040528015611d675781602001600182028036833780820191505090505b5090505b60008514611e1a57600182611d809190612ad5565b9150600a85611d8f9190612c6b565b6030611d9b9190612a4e565b60f81b818381518110611dd7577f4e487b7100000000000000000000000000000000000000000000000000000000600052603260045260246000fd5b60200101907effffffffffffffffffffffffffffffffffffffffffffffffffffffffffffff1916908160001a905350600a85611e139190612aa4565b9450611d6b565b8093505050505b919050565b505050565b505050565b6000611e518473ffffffffffffffffffffffffffffffffffffffff16611fc7565b15611fba578373ffffffffffffffffffffffffffffffffffffffff1663150b7a02611e7a6113f5565b8786866040518563ffffffff1660e01b8152600401611e9c94939291906126d1565b602060405180830381600087803b158015611eb657600080fd5b505af1925050508015611ee757506040513d601f19601f82011682018060405250810190611ee491906122fa565b60015b611f6a573d8060008114611f17576040519150601f19603f3d011682016040523d82523d6000602084013e611f1c565b606091505b50600081511415611f62576040517f08c379a0000000000000000000000000000000000000000000000000000000008152600401611f599061275a565b60405180910390fd5b805181602001fd5b63150b7a0260e01b7bffffffffffffffffffffffffffffffffffffffffffffffffffffffff1916817bffffffffffffffffffffffffffffffffffffffffffffffffffffffff191614915050611fbf565b600190505b949350505050565b6000808273ffffffffffffffffffffffffffffffffffffffff163b119050919050565b82805482825590600052602060002090810192821561202b5760005260206000209182015b8281111561202a57825482559160010191906001019061200f565b5b509050612038919061203c565b5090565b5b8082111561205557600081600090555060010161203d565b5090565b600061206c612067846129da565b6129b5565b90508281526020810184848401111561208457600080fd5b61208f848285612b7d565b509392505050565b6000813590506120a681613213565b92915050565b6000813590506120bb8161322a565b92915050565b6000813590506120d081613241565b92915050565b6000815190506120e581613241565b92915050565b600082601f8301126120fc57600080fd5b813561210c848260208601612059565b91505092915050565b60008135905061212481613258565b92915050565b60006020828403121561213c57600080fd5b600061214a84828501612097565b91505092915050565b6000806040838503121561216657600080fd5b600061217485828601612097565b925050602061218585828601612097565b9150509250929050565b6000806000606084860312156121a457600080fd5b60006121b286828701612097565b93505060206121c386828701612097565b92505060406121d486828701612115565b9150509250925092565b600080600080608085870312156121f457600080fd5b600061220287828801612097565b945050602061221387828801612097565b935050604061222487828801612115565b925050606085013567ffffffffffffffff81111561224157600080fd5b61224d878288016120eb565b91505092959194509250565b6000806040838503121561226c57600080fd5b600061227a85828601612097565b925050602061228b858286016120ac565b9150509250929050565b600080604083850312156122a857600080fd5b60006122b685828601612097565b92505060206122c785828601612115565b9150509250929050565b6000602082840312156122e357600080fd5b60006122f1848285016120c1565b91505092915050565b60006020828403121561230c57600080fd5b600061231a848285016120d6565b91505092915050565b60006020828403121561233557600080fd5b600061234384828501612115565b91505092915050565b61235581612b09565b82525050565b61236481612b1b565b82525050565b600061237582612a0b565b61237f8185612a21565b935061238f818560208601612b8c565b61239881612d58565b840191505092915050565b60006123ae82612a16565b6123b88185612a32565b93506123c8818560208601612b8c565b6123d181612d58565b840191505092915050565b60006123e782612a16565b6123f18185612a43565b9350612401818560208601612b8c565b80840191505092915050565b600061241a603283612a32565b915061242582612d69565b604082019050919050565b600061243d602683612a32565b915061244882612db8565b604082019050919050565b6000612460602583612a32565b915061246b82612e07565b604082019050919050565b6000612483601c83612a32565b915061248e82612e56565b602082019050919050565b60006124a6602483612a32565b91506124b182612e7f565b604082019050919050565b60006124c9601983612a32565b91506124d482612ece565b602082019050919050565b60006124ec602c83612a32565b91506124f782612ef7565b604082019050919050565b600061250f603883612a32565b915061251a82612f46565b604082019050919050565b6000612532602a83612a32565b915061253d82612f95565b604082019050919050565b6000612555602983612a32565b915061256082612fe4565b604082019050919050565b6000612578602083612a32565b915061258382613033565b602082019050919050565b600061259b602c83612a32565b91506125a68261305c565b604082019050919050565b60006125be602083612a32565b91506125c9826130ab565b602082019050919050565b60006125e1602f83612a32565b91506125ec826130d4565b604082019050919050565b6000612604602183612a32565b915061260f82613123565b604082019050919050565b6000612627603183612a32565b915061263282613172565b604082019050919050565b600061264a601f83612a32565b9150612655826131c1565b602082019050919050565b600061266d601283612a32565b9150612678826131ea565b602082019050919050565b61268c81612b73565b82525050565b600061269e82856123dc565b91506126aa82846123dc565b91508190509392505050565b60006020820190506126cb600083018461234c565b92915050565b60006080820190506126e6600083018761234c565b6126f3602083018661234c565b6127006040830185612683565b8181036060830152612712818461236a565b905095945050505050565b6000602082019050612732600083018461235b565b92915050565b6000602082019050818103600083015261275281846123a3565b905092915050565b600060208201905081810360008301526127738161240d565b9050919050565b6000602082019050818103600083015261279381612430565b9050919050565b600060208201905081810360008301526127b381612453565b9050919050565b600060208201905081810360008301526127d381612476565b9050919050565b600060208201905081810360008301526127f381612499565b9050919050565b60006020820190508181036000830152612813816124bc565b9050919050565b60006020820190508181036000830152612833816124df565b9050919050565b6000602082019050818103600083015261285381612502565b9050919050565b6000602082019050818103600083015261287381612525565b9050919050565b6000602082019050818103600083015261289381612548565b9050919050565b600060208201905081810360008301526128b38161256b565b9050919050565b600060208201905081810360008301526128d38161258e565b9050919050565b600060208201905081810360008301526128f3816125b1565b9050919050565b60006020820190508181036000830152612913816125d4565b9050919050565b60006020820190508181036000830152612933816125f7565b9050919050565b600060208201905081810360008301526129538161261a565b9050919050565b600060208201905081810360008301526129738161263d565b9050919050565b6000602082019050818103600083015261299381612660565b9050919050565b60006020820190506129af6000830184612683565b92915050565b60006129bf6129d0565b90506129cb8282612bf1565b919050565b6000604051905090565b600067ffffffffffffffff8211156129f5576129f4612d29565b5b6129fe82612d58565b9050602081019050919050565b600081519050919050565b600081519050919050565b600082825260208201905092915050565b600082825260208201905092915050565b600081905092915050565b6000612a5982612b73565b9150612a6483612b73565b9250827fffffffffffffffffffffffffffffffffffffffffffffffffffffffffffffffff03821115612a9957612a98612c9c565b5b828201905092915050565b6000612aaf82612b73565b9150612aba83612b73565b925082612aca57612ac9612ccb565b5b828204905092915050565b6000612ae082612b73565b9150612aeb83612b73565b925082821015612afe57612afd612c9c565b5b828203905092915050565b6000612b1482612b53565b9050919050565b60008115159050919050565b60007fffffffff0000000000000000000000000000000000000000000000000000000082169050919050565b600073ffffffffffffffffffffffffffffffffffffffff82169050919050565b6000819050919050565b82818337600083830152505050565b60005b83811015612baa578082015181840152602081019050612b8f565b83811115612bb9576000848401525b50505050565b60006002820490506001821680612bd757607f821691505b60208210811415612beb57612bea612cfa565b5b50919050565b612bfa82612d58565b810181811067ffffffffffffffff82111715612c1957612c18612d29565b5b80604052505050565b6000612c2d82612b73565b91507fffffffffffffffffffffffffffffffffffffffffffffffffffffffffffffffff821415612c6057612c5f612c9c565b5b600182019050919050565b6000612c7682612b73565b9150612c8183612b73565b925082612c9157612c90612ccb565b5b828206905092915050565b7f4e487b7100000000000000000000000000000000000000000000000000000000600052601160045260246000fd5b7f4e487b7100000000000000000000000000000000000000000000000000000000600052601260045260246000fd5b7f4e487b7100000000000000000000000000000000000000000000000000000000600052602260045260246000fd5b7f4e487b7100000000000000000000000000000000000000000000000000000000600052604160045260246000fd5b6000601f19601f8301169050919050565b7f4552433732313a207472616e7366657220746f206e6f6e20455243373231526560008201527f63656976657220696d706c656d656e7465720000000000000000000000000000602082015250565b7f4f776e61626c653a206e6577206f776e657220697320746865207a65726f206160008201527f6464726573730000000000000000000000000000000000000000000000000000602082015250565b7f4552433732313a207472616e736665722066726f6d20696e636f72726563742060008201527f6f776e6572000000000000000000000000000000000000000000000000000000602082015250565b7f4552433732313a20746f6b656e20616c7265616479206d696e74656400000000600082015250565b7f4552433732313a207472616e7366657220746f20746865207a65726f2061646460008201527f7265737300000000000000000000000000000000000000000000000000000000602082015250565b7f4552433732313a20617070726f766520746f2063616c6c657200000000000000600082015250565b7f4552433732313a206f70657261746f7220717565727920666f72206e6f6e657860008201527f697374656e7420746f6b656e0000000000000000000000000000000000000000602082015250565b7f4552433732313a20617070726f76652063616c6c6572206973206e6f74206f7760008201527f6e6572206e6f7220617070726f76656420666f7220616c6c0000000000000000602082015250565b7f4552433732313a2062616c616e636520717565727920666f7220746865207a6560008201527f726f206164647265737300000000000000000000000000000000000000000000602082015250565b7f4552433732313a206f776e657220717565727920666f72206e6f6e657869737460008201527f656e7420746f6b656e0000000000000000000000000000000000000000000000602082015250565b7f4552433732313a206d696e7420746f20746865207a65726f2061646472657373600082015250565b7f4552433732313a20617070726f76656420717565727920666f72206e6f6e657860008201527f697374656e7420746f6b656e0000000000000000000000000000000000000000602082015250565b7f4f776e61626c653a2063616c6c6572206973206e6f7420746865206f776e6572600082015250565b7f4552433732314d657461646174613a2055524920717565727920666f72206e6f60008201527f6e6578697374656e7420746f6b656e0000000000000000000000000000000000602082015250565b7f4552433732313a20617070726f76616c20746f2063757272656e74206f776e6560008201527f7200000000000000000000000000000000000000000000000000000000000000602082015250565b7f4552433732313a207472616e736665722063616c6c6572206973206e6f74206f60008201527f776e6572206e6f7220617070726f766564000000000000000000000000000000602082015250565b7f6163636f756e742073686f756c6420636f6e7461696e7320746f6b656e496400600082015250565b7f6f6e6c792063616e206d696e74206f6e63650000000000000000000000000000600082015250565b61321c81612b09565b811461322757600080fd5b50565b61323381612b1b565b811461323e57600080fd5b50565b61324a81612b27565b811461325557600080fd5b50565b61326181612b73565b811461326c57600080fd5b5056fea26469706673582212207a9f1e763087edec9dcc1d8ec69a7707a3fcf884b7f2507829726def877ea2ba64736f6c63430008040033",
  "linkReferences": {},
  "deployedLinkReferences": {}
}