{
  "_format": "hh-sol-artifact-1",
  "contractName": "MyERC20",
  "sourceName": "contracts/Myerc20.sol",
  "abi": [
    {
      "inputs": [],
      "stateMutability": "nonpayable",
      "type": "constructor"
    },
    {
      "anonymous": false,
      "inputs": [
        {
          "indexed": true,
          "internalType": "address",
          "name": "owner",
          "type": "address"
        },
        {
          "indexed": true,
          "internalType": "address",
          "name": "spender",
          "type": "address"
        },
        {
          "indexed": false,
          "internalType": "uint256",
          "name": "value",
          "type": "uint256"
        }
      ],
      "name": "Approval",
      "type": "event"
    },
    {
      "anonymous": false,
      "inputs": [
        {
          "indexed": true,
          "internalType": "address",
          "name": "previousOwner",
          "type": "address"
        },
        {
          "indexed": true,
          "internalType": "address",
          "name": "newOwner",
          "type": "address"
        }
      ],
      "name": "OwnershipTransferred",
      "type": "event"
    },
    {
      "anonymous": false,
      "inputs": [
        {
          "indexed": true,
          "internalType": "address",
          "name": "from",
          "type": "address"
        },
        {
          "indexed": true,
          "internalType": "address",
          "name": "to",
          "type": "address"
        },
        {
          "indexed": false,
          "internalType": "uint256",
          "name": "value",
          "type": "uint256"
        }
      ],
      "name": "Transfer",
      "type": "event"
    },
    {
      "inputs": [
        {
          "internalType": "address",
          "name": "owner",
          "type": "address"
        },
        {
          "internalType": "address",
          "name": "spender",
          "type": "address"
        }
      ],
      "name": "allowance",
      "outputs": [
        {
          "internalType": "uint256",
          "name": "",
          "type": "uint256"
        }
      ],
      "stateMutability": "view",
      "type": "function"
    },
    {
      "inputs": [
        {
          "internalType": "address",
          "name": "spender",
          "type": "address"
        },
        {
          "internalType": "uint256",
          "name": "amount",
          "type": "uint256"
        }
      ],
      "name": "approve",
      "outputs": [
        {
          "internalType": "bool",
          "name": "",
          "type": "bool"
        }
      ],
      "stateMutability": "nonpayable",
      "type": "function"
    },
    {
      "inputs": [
        {
          "internalType": "address",
          "name": "account",
          "type": "address"
        }
      ],
      "name": "balanceOf",
      "outputs": [
        {
          "internalType": "uint256",
          "name": "",
          "type": "uint256"
        }
      ],
      "stateMutability": "view",
      "type": "function"
    },
    {
      "inputs": [],
      "name": "decimals",
      "outputs": [
        {
          "internalType": "uint8",
          "name": "",
          "type": "uint8"
        }
      ],
      "stateMutability": "pure",
      "type": "function"
    },
    {
      "inputs": [
        {
          "internalType": "address",
          "name": "spender",
          "type": "address"
        },
        {
          "internalType": "uint256",
          "name": "subtractedValue",
          "type": "uint256"
        }
      ],
      "name": "decreaseAllowance",
      "outputs": [
        {
          "internalType": "bool",
          "name": "",
          "type": "bool"
        }
      ],
      "stateMutability": "nonpayable",
      "type": "function"
    },
    {
      "inputs": [
        {
          "internalType": "address",
          "name": "spender",
          "type": "address"
        },
        {
          "internalType": "uint256",
          "name": "addedValue",
          "type": "uint256"
        }
      ],
      "name": "increaseAllowance",
      "outputs": [
        {
          "internalType": "bool",
          "name": "",
          "type": "bool"
        }
      ],
      "stateMutability": "nonpayable",
      "type": "function"
    },
    {
      "inputs": [
        {
          "internalType": "uint256",
          "name": "amount",
          "type": "uint256"
        }
      ],
      "name": "mint",
      "outputs": [],
      "stateMutability": "nonpayable",
      "type": "function"
    },
    {
      "inputs": [],
      "name": "name",
      "outputs": [
        {
          "internalType": "string",
          "name": "",
          "type": "string"
        }
      ],
      "stateMutability": "view",
      "type": "function"
    },
    {
      "inputs": [],
      "name": "owner",
      "outputs": [
        {
          "internalType": "address",
          "name": "",
          "type": "address"
        }
      ],
      "stateMutability": "view",
      "type": "function"
    },
    {
      "inputs": [],
      "name": "renounceOwnership",
      "outputs": [],
      "stateMutability": "nonpayable",
      "type": "function"
    },
    {
      "inputs": [],
      "name": "symbol",
      "outputs": [
        {
          "internalType": "string",
          "name": "",
          "type": "string"
        }
      ],
      "stateMutability": "view",
      "type": "function"
    },
    {
      "inputs": [],
      "name": "totalSupply",
      "outputs": [
        {
          "internalType": "uint256",
          "name": "",
          "type": "uint256"
        }
      ],
      "stateMutability": "view",
      "type": "function"
    },
    {
      "inputs": [
        {
          "internalType": "address",
          "name": "to",
          "type": "address"
        },
        {
          "internalType": "uint256",
          "name": "amount",
          "type": "uint256"
        }
      ],
      "name": "transfer",
      "outputs": [
        {
          "internalType": "bool",
          "name": "",
          "type": "bool"
        }
      ],
      "stateMutability": "nonpayable",
      "type": "function"
    },
    {
      "inputs": [
        {
          "internalType": "address",
          "name": "from",
          "type": "address"
        },
        {
          "internalType": "address",
          "name": "to",
          "type": "address"
        },
        {
          "internalType": "uint256",
          "name": "amount",
          "type": "uint256"
        }
      ],
      "name": "transferFrom",
      "outputs": [
        {
          "internalType": "bool",
          "name": "",
          "type": "bool"
        }
      ],
      "stateMutability": "nonpayable",
      "type": "function"
    },
    {
      "inputs": [
        {
          "internalType": "address",
          "name": "newOwner",
          "type": "address"
        }
      ],
      "name": "transferOwnership",
      "outputs": [],
      "stateMutability": "nonpayable",
      "type": "function"
    }
  ],
  "bytecode": "0x60806040523480156200001157600080fd5b506040518060400160405280600781526020017f4d794552433230000000000000000000000000000000000000000000000000008152506040518060400160405280600781526020017f4d794552433230000000000000000000000000000000000000000000000000008152506200009e620000926200012660201b60201c565b6200012e60201b60201c565b8160049080519060200190620000b69291906200037f565b508060059080519060200190620000cf9291906200037f565b50505062000120620000e66200012660201b60201c565b620000f6620001f260201b60201c565b600a6200010491906200056f565b62989680620001149190620006ac565b620001fb60201b60201c565b620007ee565b600033905090565b60008060009054906101000a900473ffffffffffffffffffffffffffffffffffffffff169050816000806101000a81548173ffffffffffffffffffffffffffffffffffffffff021916908373ffffffffffffffffffffffffffffffffffffffff1602179055508173ffffffffffffffffffffffffffffffffffffffff168173ffffffffffffffffffffffffffffffffffffffff167f8be0079c531659141344cd1fd0a4f28419497f9722a3daafe3b4186f6b6457e060405160405180910390a35050565b60006012905090565b600073ffffffffffffffffffffffffffffffffffffffff168273ffffffffffffffffffffffffffffffffffffffff1614156200026e576040517f08c379a0000000000000000000000000000000000000000000000000000000008152600401620002659062000467565b60405180910390fd5b62000282600083836200037560201b60201c565b8060036000828254620002969190620004b7565b9250508190555080600160008473ffffffffffffffffffffffffffffffffffffffff1673ffffffffffffffffffffffffffffffffffffffff1681526020019081526020016000206000828254620002ee9190620004b7565b925050819055508173ffffffffffffffffffffffffffffffffffffffff16600073ffffffffffffffffffffffffffffffffffffffff167fddf252ad1be2c89b69c2b068fc378daa952ba7f163c4a11628f55a4df523b3ef8360405162000355919062000489565b60405180910390a362000371600083836200037a60201b60201c565b5050565b505050565b505050565b8280546200038d9062000724565b90600052602060002090601f016020900481019282620003b15760008555620003fd565b82601f10620003cc57805160ff1916838001178555620003fd565b82800160010185558215620003fd579182015b82811115620003fc578251825591602001919060010190620003df565b5b5090506200040c919062000410565b5090565b5b808211156200042b57600081600090555060010162000411565b5090565b60006200043e601f83620004a6565b91506200044b82620007c5565b602082019050919050565b62000461816200070d565b82525050565b6000602082019050818103600083015262000482816200042f565b9050919050565b6000602082019050620004a0600083018462000456565b92915050565b600082825260208201905092915050565b6000620004c4826200070d565b9150620004d1836200070d565b9250827fffffffffffffffffffffffffffffffffffffffffffffffffffffffffffffffff038211156200050957620005086200075a565b5b828201905092915050565b6000808291508390505b600185111562000566578086048111156200053e576200053d6200075a565b5b60018516156200054e5780820291505b80810290506200055e85620007b8565b94506200051e565b94509492505050565b60006200057c826200070d565b9150620005898362000717565b9250620005b87fffffffffffffffffffffffffffffffffffffffffffffffffffffffffffffffff8484620005c0565b905092915050565b600082620005d25760019050620006a5565b81620005e25760009050620006a5565b8160018114620005fb576002811462000606576200063c565b6001915050620006a5565b60ff8411156200061b576200061a6200075a565b5b8360020a9150848211156200063557620006346200075a565b5b50620006a5565b5060208310610133831016604e8410600b8410161715620006765782820a90508381111562000670576200066f6200075a565b5b620006a5565b62000685848484600162000514565b925090508184048111156200069f576200069e6200075a565b5b81810290505b9392505050565b6000620006b9826200070d565b9150620006c6836200070d565b9250817fffffffffffffffffffffffffffffffffffffffffffffffffffffffffffffffff04831182151516156200070257620007016200075a565b5b828202905092915050565b6000819050919050565b600060ff82169050919050565b600060028204905060018216806200073d57607f821691505b6020821081141562000754576200075362000789565b5b50919050565b7f4e487b7100000000000000000000000000000000000000000000000000000000600052601160045260246000fd5b7f4e487b7100000000000000000000000000000000000000000000000000000000600052602260045260246000fd5b60008160011c9050919050565b7f45524332303a206d696e7420746f20746865207a65726f206164647265737300600082015250565b611a0480620007fe6000396000f3fe608060405234801561001057600080fd5b50600436106100f55760003560e01c8063715018a611610097578063a457c2d711610066578063a457c2d714610276578063a9059cbb146102a6578063dd62ed3e146102d6578063f2fde38b14610306576100f5565b8063715018a6146102145780638da5cb5b1461021e57806395d89b411461023c578063a0712d681461025a576100f5565b806323b872dd116100d357806323b872dd14610166578063313ce5671461019657806339509351146101b457806370a08231146101e4576100f5565b806306fdde03146100fa578063095ea7b31461011857806318160ddd14610148575b600080fd5b610102610322565b60405161010f91906113c9565b60405180910390f35b610132600480360381019061012d919061115b565b6103b4565b60405161013f91906113ae565b60405180910390f35b6101506103d7565b60405161015d919061152b565b60405180910390f35b610180600480360381019061017b919061110c565b6103e1565b60405161018d91906113ae565b60405180910390f35b61019e610410565b6040516101ab9190611546565b60405180910390f35b6101ce60048036038101906101c9919061115b565b610419565b6040516101db91906113ae565b60405180910390f35b6101fe60048036038101906101f991906110a7565b6104c3565b60405161020b919061152b565b60405180910390f35b61021c61050c565b005b610226610594565b6040516102339190611393565b60405180910390f35b6102446105bd565b60405161025191906113c9565b60405180910390f35b610274600480360381019061026f9190611197565b61064f565b005b610290600480360381019061028b919061115b565b6106df565b60405161029d91906113ae565b60405180910390f35b6102c060048036038101906102bb919061115b565b6107c9565b6040516102cd91906113ae565b60405180910390f35b6102f060048036038101906102eb91906110d0565b6107ec565b6040516102fd919061152b565b60405180910390f35b610320600480360381019061031b91906110a7565b610873565b005b6060600480546103319061165b565b80601f016020809104026020016040519081016040528092919081815260200182805461035d9061165b565b80156103aa5780601f1061037f576101008083540402835291602001916103aa565b820191906000526020600020905b81548152906001019060200180831161038d57829003601f168201915b5050505050905090565b6000806103bf61096b565b90506103cc818585610973565b600191505092915050565b6000600354905090565b6000806103ec61096b565b90506103f9858285610b3e565b610404858585610bca565b60019150509392505050565b60006012905090565b60008061042461096b565b90506104b8818585600260008673ffffffffffffffffffffffffffffffffffffffff1673ffffffffffffffffffffffffffffffffffffffff16815260200190815260200160002060008973ffffffffffffffffffffffffffffffffffffffff1673ffffffffffffffffffffffffffffffffffffffff168152602001908152602001600020546104b3919061157d565b610973565b600191505092915050565b6000600160008373ffffffffffffffffffffffffffffffffffffffff1673ffffffffffffffffffffffffffffffffffffffff168152602001908152602001600020549050919050565b61051461096b565b73ffffffffffffffffffffffffffffffffffffffff16610532610594565b73ffffffffffffffffffffffffffffffffffffffff1614610588576040517f08c379a000000000000000000000000000000000000000000000000000000000815260040161057f9061148b565b60405180910390fd5b6105926000610e4e565b565b60008060009054906101000a900473ffffffffffffffffffffffffffffffffffffffff16905090565b6060600580546105cc9061165b565b80601f01602080910402602001604051908101604052809291908181526020018280546105f89061165b565b80156106455780601f1061061a57610100808354040283529160200191610645565b820191906000526020600020905b81548152906001019060200180831161062857829003601f168201915b5050505050905090565b61065761096b565b73ffffffffffffffffffffffffffffffffffffffff16610675610594565b73ffffffffffffffffffffffffffffffffffffffff16146106cb576040517f08c379a00000000000000000000000000000000000000000000000000000000081526004016106c29061148b565b60405180910390fd5b6106dc6106d661096b565b82610f12565b50565b6000806106ea61096b565b90506000600260008373ffffffffffffffffffffffffffffffffffffffff1673ffffffffffffffffffffffffffffffffffffffff16815260200190815260200160002060008673ffffffffffffffffffffffffffffffffffffffff1673ffffffffffffffffffffffffffffffffffffffff168152602001908152602001600020549050838110156107b0576040517f08c379a00000000000000000000000000000000000000000000000000000000081526004016107a7906114eb565b60405180910390fd5b6107bd8286868403610973565b60019250505092915050565b6000806107d461096b565b90506107e1818585610bca565b600191505092915050565b6000600260008473ffffffffffffffffffffffffffffffffffffffff1673ffffffffffffffffffffffffffffffffffffffff16815260200190815260200160002060008373ffffffffffffffffffffffffffffffffffffffff1673ffffffffffffffffffffffffffffffffffffffff16815260200190815260200160002054905092915050565b61087b61096b565b73ffffffffffffffffffffffffffffffffffffffff16610899610594565b73ffffffffffffffffffffffffffffffffffffffff16146108ef576040517f08c379a00000000000000000000000000000000000000000000000000000000081526004016108e69061148b565b60405180910390fd5b600073ffffffffffffffffffffffffffffffffffffffff168173ffffffffffffffffffffffffffffffffffffffff16141561095f576040517f08c379a00000000000000000000000000000000000000000000000000000000081526004016109569061140b565b60405180910390fd5b61096881610e4e565b50565b600033905090565b600073ffffffffffffffffffffffffffffffffffffffff168373ffffffffffffffffffffffffffffffffffffffff1614156109e3576040517f08c379a00000000000000000000000000000000000000000000000000000000081526004016109da906114cb565b60405180910390fd5b600073ffffffffffffffffffffffffffffffffffffffff168273ffffffffffffffffffffffffffffffffffffffff161415610a53576040517f08c379a0000000000000000000000000000000000000000000000000000000008152600401610a4a9061142b565b60405180910390fd5b80600260008573ffffffffffffffffffffffffffffffffffffffff1673ffffffffffffffffffffffffffffffffffffffff16815260200190815260200160002060008473ffffffffffffffffffffffffffffffffffffffff1673ffffffffffffffffffffffffffffffffffffffff168152602001908152602001600020819055508173ffffffffffffffffffffffffffffffffffffffff168373ffffffffffffffffffffffffffffffffffffffff167f8c5be1e5ebec7d5bd14f71427d1e84f3dd0314c0f7b2291e5b200ac8c7c3b92583604051610b31919061152b565b60405180910390a3505050565b6000610b4a84846107ec565b90507fffffffffffffffffffffffffffffffffffffffffffffffffffffffffffffffff8114610bc45781811015610bb6576040517f08c379a0000000000000000000000000000000000000000000000000000000008152600401610bad9061144b565b60405180910390fd5b610bc38484848403610973565b5b50505050565b600073ffffffffffffffffffffffffffffffffffffffff168373ffffffffffffffffffffffffffffffffffffffff161415610c3a576040517f08c379a0000000000000000000000000000000000000000000000000000000008152600401610c31906114ab565b60405180910390fd5b600073ffffffffffffffffffffffffffffffffffffffff168273ffffffffffffffffffffffffffffffffffffffff161415610caa576040517f08c379a0000000000000000000000000000000000000000000000000000000008152600401610ca1906113eb565b60405180910390fd5b610cb5838383611073565b6000600160008573ffffffffffffffffffffffffffffffffffffffff1673ffffffffffffffffffffffffffffffffffffffff16815260200190815260200160002054905081811015610d3c576040517f08c379a0000000000000000000000000000000000000000000000000000000008152600401610d339061146b565b60405180910390fd5b818103600160008673ffffffffffffffffffffffffffffffffffffffff1673ffffffffffffffffffffffffffffffffffffffff1681526020019081526020016000208190555081600160008573ffffffffffffffffffffffffffffffffffffffff1673ffffffffffffffffffffffffffffffffffffffff1681526020019081526020016000206000828254610dd1919061157d565b925050819055508273ffffffffffffffffffffffffffffffffffffffff168473ffffffffffffffffffffffffffffffffffffffff167fddf252ad1be2c89b69c2b068fc378daa952ba7f163c4a11628f55a4df523b3ef84604051610e35919061152b565b60405180910390a3610e48848484611078565b50505050565b60008060009054906101000a900473ffffffffffffffffffffffffffffffffffffffff169050816000806101000a81548173ffffffffffffffffffffffffffffffffffffffff021916908373ffffffffffffffffffffffffffffffffffffffff1602179055508173ffffffffffffffffffffffffffffffffffffffff168173ffffffffffffffffffffffffffffffffffffffff167f8be0079c531659141344cd1fd0a4f28419497f9722a3daafe3b4186f6b6457e060405160405180910390a35050565b600073ffffffffffffffffffffffffffffffffffffffff168273ffffffffffffffffffffffffffffffffffffffff161415610f82576040517f08c379a0000000000000000000000000000000000000000000000000000000008152600401610f799061150b565b60405180910390fd5b610f8e60008383611073565b8060036000828254610fa0919061157d565b9250508190555080600160008473ffffffffffffffffffffffffffffffffffffffff1673ffffffffffffffffffffffffffffffffffffffff1681526020019081526020016000206000828254610ff6919061157d565b925050819055508173ffffffffffffffffffffffffffffffffffffffff16600073ffffffffffffffffffffffffffffffffffffffff167fddf252ad1be2c89b69c2b068fc378daa952ba7f163c4a11628f55a4df523b3ef8360405161105b919061152b565b60405180910390a361106f60008383611078565b5050565b505050565b505050565b60008135905061108c816119a0565b92915050565b6000813590506110a1816119b7565b92915050565b6000602082840312156110b957600080fd5b60006110c78482850161107d565b91505092915050565b600080604083850312156110e357600080fd5b60006110f18582860161107d565b92505060206111028582860161107d565b9150509250929050565b60008060006060848603121561112157600080fd5b600061112f8682870161107d565b93505060206111408682870161107d565b925050604061115186828701611092565b9150509250925092565b6000806040838503121561116e57600080fd5b600061117c8582860161107d565b925050602061118d85828601611092565b9150509250929050565b6000602082840312156111a957600080fd5b60006111b784828501611092565b91505092915050565b6111c9816115d3565b82525050565b6111d8816115e5565b82525050565b60006111e982611561565b6111f3818561156c565b9350611203818560208601611628565b61120c816116eb565b840191505092915050565b600061122460238361156c565b915061122f826116fc565b604082019050919050565b600061124760268361156c565b91506112528261174b565b604082019050919050565b600061126a60228361156c565b91506112758261179a565b604082019050919050565b600061128d601d8361156c565b9150611298826117e9565b602082019050919050565b60006112b060268361156c565b91506112bb82611812565b604082019050919050565b60006112d360208361156c565b91506112de82611861565b602082019050919050565b60006112f660258361156c565b91506113018261188a565b604082019050919050565b600061131960248361156c565b9150611324826118d9565b604082019050919050565b600061133c60258361156c565b915061134782611928565b604082019050919050565b600061135f601f8361156c565b915061136a82611977565b602082019050919050565b61137e81611611565b82525050565b61138d8161161b565b82525050565b60006020820190506113a860008301846111c0565b92915050565b60006020820190506113c360008301846111cf565b92915050565b600060208201905081810360008301526113e381846111de565b905092915050565b6000602082019050818103600083015261140481611217565b9050919050565b600060208201905081810360008301526114248161123a565b9050919050565b600060208201905081810360008301526114448161125d565b9050919050565b6000602082019050818103600083015261146481611280565b9050919050565b60006020820190508181036000830152611484816112a3565b9050919050565b600060208201905081810360008301526114a4816112c6565b9050919050565b600060208201905081810360008301526114c4816112e9565b9050919050565b600060208201905081810360008301526114e48161130c565b9050919050565b600060208201905081810360008301526115048161132f565b9050919050565b6000602082019050818103600083015261152481611352565b9050919050565b60006020820190506115406000830184611375565b92915050565b600060208201905061155b6000830184611384565b92915050565b600081519050919050565b600082825260208201905092915050565b600061158882611611565b915061159383611611565b9250827fffffffffffffffffffffffffffffffffffffffffffffffffffffffffffffffff038211156115c8576115c761168d565b5b828201905092915050565b60006115de826115f1565b9050919050565b60008115159050919050565b600073ffffffffffffffffffffffffffffffffffffffff82169050919050565b6000819050919050565b600060ff82169050919050565b60005b8381101561164657808201518184015260208101905061162b565b83811115611655576000848401525b50505050565b6000600282049050600182168061167357607f821691505b60208210811415611687576116866116bc565b5b50919050565b7f4e487b7100000000000000000000000000000000000000000000000000000000600052601160045260246000fd5b7f4e487b7100000000000000000000000000000000000000000000000000000000600052602260045260246000fd5b6000601f19601f8301169050919050565b7f45524332303a207472616e7366657220746f20746865207a65726f206164647260008201527f6573730000000000000000000000000000000000000000000000000000000000602082015250565b7f4f776e61626c653a206e6577206f776e657220697320746865207a65726f206160008201527f6464726573730000000000000000000000000000000000000000000000000000602082015250565b7f45524332303a20617070726f766520746f20746865207a65726f20616464726560008201527f7373000000000000000000000000000000000000000000000000000000000000602082015250565b7f45524332303a20696e73756666696369656e7420616c6c6f77616e6365000000600082015250565b7f45524332303a207472616e7366657220616d6f756e742065786365656473206260008201527f616c616e63650000000000000000000000000000000000000000000000000000602082015250565b7f4f776e61626c653a2063616c6c6572206973206e6f7420746865206f776e6572600082015250565b7f45524332303a207472616e736665722066726f6d20746865207a65726f20616460008201527f6472657373000000000000000000000000000000000000000000000000000000602082015250565b7f45524332303a20617070726f76652066726f6d20746865207a65726f2061646460008201527f7265737300000000000000000000000000000000000000000000000000000000602082015250565b7f45524332303a2064656372656173656420616c6c6f77616e63652062656c6f7760008201527f207a65726f000000000000000000000000000000000000000000000000000000602082015250565b7f45524332303a206d696e7420746f20746865207a65726f206164647265737300600082015250565b6119a9816115d3565b81146119b457600080fd5b50565b6119c081611611565b81146119cb57600080fd5b5056fea2646970667358221220a25b142ec2357af7adb3ebc168cca5a23de337837e70a127ecdd909526e49a5a64736f6c63430008040033",
  "linkReferences": {},
  "deployedLinkReferences": {}
}